:020000040000FA
:06000000A1EF2BF012003D
:0600080050EF26F012008B
:0600180058EF26F0120073
:100800000500A45700006000000048000000975752
:100810000000A80000000D00000096570000CC006A
:1008200000000100000091570000CB000000010013
:0E083000000094570000C90000000200000004
:02083E00D9CF10
:10084000E6FFE1CFD9FF040EE126020EDB6A030EBC
:10085000DB6A020EDBCF14F0030EDBCF15F0FD0ECA
:10086000DBCF16F0FE0EDBCF17F01650145C1750DE
:10087000155816E2DE6ADD6ADECF14F0DDCF15F022
:100880006C0E145C220E155805E2DF2A010E01E3FE
:10089000DB2AF2D7020EDB2A030E01E3DB2AD9D7CB
:1008A000040EE15C02E2E16AE552E16EE552E7CF57
:1008B000D9FF1200D9CFE6FFE1CFD9FF130EE12611
:1008C000086A096A080E08C0DBFF090E09C0DBFFD1
:1008D000060E08C0DBFF070E09C0DBFF040E08C0D0
:1008E000DBFF050E09C0DBFF020E08C0DBFF030EB5
:1008F00009C0DBFF110E08C0DBFF0F0EDB6A100E14
:10090000DB6ADE52010EDD6E300EE76E020EDBCFCB
:1009100014F0030EDBCF15F0E7501426000E15225D
:100920000A0E14C0DBFF300EE76E040EDBCF14F0AE
:10093000050EDBCF15F0E7501426000E15220B0E26
:1009400014C0DBFF300EE76E060EDBCF14F0070E8F
:10095000DBCF15F0E7501426000E15220C0E14C044
:10096000DBFF300EE76E080EDBCF14F0090EDBCF95
:1009700015F0E7501426000E15220D0E14C0DBFFF3
:100980000E0EDB6ADF6A010EE66E8BEC1EF0E5529E
:10099000010EE66E060EE66EADEC1EF0E552E55277
:1009A000E80EE66E540EE66EC9EC1EF0E552E55216
:1009B000020EE66E060EE66EADEC1EF0E552E55256
:1009C000D9500A0FE66E000EDA20E66E74EC1FF0C6
:1009D000E552E552020EE66E010EDB50050FE66EA3
:1009E000ADEC1EF0E552E5520F0EE66E8BEC1EF0FC
:1009F000E5521C0E8114E76E120EE7CFDBFF61ECAF
:100A00000FF0120EDB50180801E099D0010EDB2A1E
:100A1000020EE66E010EDB50050FE66EADEC1EF029
:100A2000E552E5520F0EE66E8BEC1EF0E5521C0E01
:100A30008114E76E120EE7CFDBFF120EDB501808B1
:100A4000F6E0010EDB50040871E20C0EE66E8BEC52
:100A50001EF0E552020EDBCF1AF0030EDBCF1BF0C7
:100A6000E80E1B02F3CF1BF0030E1A02F3501B26F5
:100A7000E80E1A02F3CF1AF0F4501B26640E086E2B
:100A8000096A040EDBCF0DF0050EDBCF0EF0B3ECE0
:100A900028F01A500624186E1B500720196E0A0EF3
:100AA000086E096A060EDBCF0DF0070EDBCF0EF0E5
:100AB000B3EC28F018500624166E19500720176E54
:100AC000080EDB501624146E090EDB501720156E2D
:100AD0000F0E14C0DBFF100E15C0DBFFDE52010E3F
:100AE000DD6ED9500F0FE96EDACFEAFF8F0EEE18E8
:100AF00002E1120EED1803E1010EDF6E17D0010EB8
:100B0000E66E8BEC1EF0E552800EE66E8BEC1EF06E
:100B1000E552E30EE66E540EE66E0DEC1FF0E55264
:100B2000E552C2EC0EF0C2EC0EF0EBD6110EDB6A11
:100B3000010EE66EE66A83DEE552E55282D1120EC0
:100B4000DB500C0801E0AFD0110EDB2A110EDBCF19
:100B500014F0090EE76E1418E8AE02D0143403D076
:100B6000E750D880145402E2110EDB6A1C0E811487
:100B7000E76E120EE7CFDBFF120EDB500C08F6E03B
:100B8000010EDB50040A43E0070A2DE0010A17E0DA
:100B9000030A01E050D0110EDBCF14F0156A14BE29
:100BA0001568020E14C0DBFF030E15C0DBFF110E2B
:100BB000DB50300FE76E0A0EE7CFDBFF42D0110E9D
:100BC000DBCF14F0156A14BE1568040E14C0DBFFE9
:100BD000050E15C0DBFF110EDB50300FE76E0B0E5C
:100BE000E7CFDBFF2ED0110EDBCF14F0156A14BE59
:100BF0001568060E14C0DBFF070E15C0DBFF110ED3
:100C0000DB50300FE76E0C0EE7CFDBFF1AD0110E72
:100C1000DBCF14F0156A14BE1568080E14C0DBFF94
:100C2000090E15C0DBFF110EDB50300FE76E0D0E05
:100C3000E7CFDBFF06D0DE52010EDD6E0E0EDB6A63
:100C400000D00C0EE66E8BEC1EF0E552C00EE66E88
:100C50008BEC1EF0E552020EE66E060EE66EADEC73
:100C60001EF0E552E552D9500A0FE66E000EDA206A
:100C7000E66E74EC1FF0E552E552020EE66E010ED0
:100C8000DB50050FE66EADEC1EF0E552E5520F0E9F
:100C9000E66E8BEC1EF0E552010EE66EE66ACFDDE5
:100CA000E552E552CED0120EDB50140801E0A9D077
:100CB000110EDB06110EDBCF14F0143405E3090E20
:100CC000F36E110EF3CFDBFF1C0E8114E76E120ED4
:100CD000E7CFDBFF120EDB501408F6E0010EDB500D
:100CE000040A43E0070A2DE0010A17E0030A01E0C5
:100CF00050D0110EDBCF14F0156A14BE1568020E29
:100D000014C0DBFF030E15C0DBFF110EDB50300FEC
:100D1000E76E0A0EE7CFDBFF42D0110EDBCF14F0F7
:100D2000156A14BE1568040E14C0DBFF050E15C04D
:100D3000DBFF110EDB50300FE76E0B0EE7CFDBFF52
:100D40002ED0110EDBCF14F0156A14BE1568060EF6
:100D500014C0DBFF070E15C0DBFF110EDB50300F98
:100D6000E76E0C0EE7CFDBFF1AD0110EDBCF14F0CD
:100D7000156A14BE1568080E14C0DBFF090E15C0F5
:100D8000DBFF110EDB50300FE76E0D0EE7CFDBFF00
:100D900006D0DE52010EDD6E02D00E0EDB6A0C0EA6
:100DA000E66E8BEC1EF0E552C00EE66E8BEC1EF08C
:100DB000E552020EE66E060EE66EADEC1EF0E55252
:100DC000E552D9500A0FE66E000EDA20E66E74EC9A
:100DD0001FF0E552E552020EE66E010EDB50050FE4
:100DE000E66EADEC1EF0E552E5520F0EE66E8BECB2
:100DF0001EF0E552010EE66EE66A21DDE552E5528F
:100E000020D0120EDB5004081CE1010EDB2A020E7A
:100E1000E66E010EDB50050FE66EADEC1EF0E552FE
:100E2000E5520F0EE66E8BEC1EF0E5521C0E81149F
:100E3000E76E120EE7CFDBFF120EDB501808F6E06C
:100E4000FF00DF5001E1D5D500D0130EE15C02E2D6
:100E5000E16AE552E16EE552E7CFD9FF1200D9CF42
:100E6000E6FFE1CFD9FFE652DF6AE66A740EE66E6E
:100E7000570EE66E156ADF34FE0B1536146EFC0E47
:100E8000DB501424E96EFD0EDB501520EA6EEECF28
:100E9000E6FFEFCFE6FF010EE66E73EC18F0166E7C
:100EA000060EE15E165081A6FED781B427D0DF2A58
:100EB000FE0EDB50DF5C01E1DF6AE66A740EE66E6F
:100EC000570EE66E156ADF34FE0B1536146EFC0EF7
:100ED000DB501424E96EFD0EDB501520EA6EEECFD8
:100EE000E6FFEFCFE6FF010EE66E73EC18F0166E2C
:100EF000060EE15E165081A4FED76BD081B828D0D3
:100F0000DF5002E0DF0603D0FE0EDB04DF6EE66A90
:100F1000740EE66E570EE66E156ADF34FE0B15365C
:100F2000146EFC0EDB501424E96EFD0EDB50152010
:100F3000EA6EEECFE6FFEFCFE6FF010EE66E73EC52
:100F400018F0166E060EE15E165081A8FED741D04D
:100F500081B63FD081A6FED7FE0EDB04DF5C02E146
:100F60003BD017D0176ADF34FE0B1736166EFA0E19
:100F7000DB501624E96EFB0EDB501720EA6EEECF35
:100F800014F0EFCF15F004D015C0FAFF1450F96E2D
:100F9000FBDFE66A740EE66E570EE66E156ADF3406
:100FA000FE0B1536146EFC0EDB501424E96EFD0E9C
:100FB000DB501520EA6EEECFE6FFEFCFE6FF010E25
:100FC000E66E73EC18F0166E060EE15E165081A602
:100FD000FED761EC0FF069D7E552E552E7CFD9FFB4
:100FE0001200D9CFE6FFE1CFD9FF220EE126050E90
:100FF000DB6A060EDB6A070EDB6A080EDB6A090E87
:10100000DB6A0A0EDB6A0B0EDB6A0C0EDB6A0D0E66
:10101000DB68030EF36E0E0EF3CFDBFF0F0EDB6A01
:10102000100EDB6A81A610EF0DF0070EDB6A080ECA
:10103000DB6ADF6ADFCF14F00A0EE76E1418E8AE41
:1010400002D0E73402D0E750145C1DE2FE0EDBCF85
:10105000E6FF38EC10F0E552050EF3CFDBFF060E8D
:10106000F4CFDBFF050EDBCF14F0060EDBCF15F05F
:10107000D950070FE96EDACFEAFF1450EE2615506B
:10108000ED22DF2AD7D70A0E146E156A070EDBCFC2
:1010900008F0080EDBCF09F014C00DF015C00EF0FB
:1010A00057EC2BF0070E08C0DBFF080E09C0DBFF72
:1010B000070EDBCF14F0080EDBCF15F00F0EDBCFE1
:1010C00016F0100EDBCF17F01450165C15501758A1
:1010D0000CE2070EDBCF08F0080EDBCF09F00F0E95
:1010E00008C0DBFF100E09C0DBFF070EDBCF14F0DA
:1010F000080EDBCF15F00D0EDBCF16F00E0EDBCF9A
:1011000017F01650145C175015580CE2070EDBCF81
:1011100008F0080EDBCF09F00D0E08C0DBFF0E0E45
:1011200009C0DBFF070EDBCF14F0080EDBCF15F094
:101130000001C951145CCA51155801E3F9D1C9C065
:1011400018F0CAC019F01A6A1B6A070EDBCF1CF030
:10115000080EDBCF1DF01E6A1F6A1C50185C146E4F
:101160001D501958156E1E501A58166E1F501B58D8
:10117000176E0B0E14C0DBFF0C0E15C0DBFF0B0E41
:10118000DBCF06F00C0EDBCF07F0086A096AE80E29
:101190000B6E030E0C6E0D6A0E6AE0EC2AF002C0B4
:1011A00006F003C007F004C008F005C009F00B68A2
:1011B000030E0C6E0D6A0E6A18EC2BF00B0E06C0B7
:1011C000DBFF0C0E07C0DBFF200EF36E110EF3CF1A
:1011D000DBFF0B0EDBCF14F00C0EDBCF15F0640E33
:1011E0000D6E0E6A14C008F015C009F08DEC28F0E1
:1011F00008C014F009C015F0300E1426000E152298
:10120000120E14C0DBFF0B0EDBCF14F00C0EDBCF85
:1012100015F0640E0D6E0E6A14C008F015C009F0CA
:1012200057EC2BF004C014F005C015F00A0E0D6E3B
:101230000E6A14C008F015C009F057EC2BF008C076
:1012400014F009C015F0300E1426000E1522130EEE
:1012500014C0DBFF0B0EDBCF14F00C0EDBCF15F050
:101260000A0E0D6E0E6A14C008F015C009F057EC96
:101270002BF004C014F005C015F0300E1426000E3B
:101280001522140E14C0DBFF200EF36E150EF3CFE3
:10129000DBFF7C0EF36E160EF3CFDBFF200EF36E3A
:1012A000170EF3CFDBFF0F0EDB500001C95D00010D
:1012B000146E100EDB500001CA590001156E0B0EA2
:1012C00014C0DBFF0C0E15C0DBFF0B0EDBCF06F0EE
:1012D0000C0EDBCF07F0086A096AE80E0B6E030EEE
:1012E0000C6E0D6A0E6AE0EC2AF002C006F003C034
:1012F00007F004C008F005C009F00B68030E0C6E7F
:101300000D6A0E6A18EC2BF00B0E06C0DBFF0C0EFC
:1013100007C0DBFF0B0EDBCF14F00C0EDBCF15F09C
:10132000640E0D6E0E6A14C008F015C009F08DEC45
:1013300028F008C014F009C015F0300E1426000E75
:101340001522180E14C0DBFF0B0EDBCF14F00C0EB1
:10135000DBCF15F0640E0D6E0E6A14C008F015C0D8
:1013600009F057EC2BF004C014F005C015F00A0E7C
:101370000D6E0E6A14C008F015C009F057EC2BF082
:1013800008C014F009C015F0300E1426000E152206
:10139000190E14C0DBFF0B0EDBCF14F00C0EDBCFED
:1013A00015F00A0E0D6E0E6A14C008F015C009F093
:1013B00057EC2BF004C014F005C015F0300E1426C5
:1013C000000E15221A0E14C0DBFF200EF36E1B0E4A
:1013D000F3CFDBFF7E0EF36E1C0EF3CFDBFF0D0EA3
:1013E000DB500001C95D0001146E0E0EDB500001E0
:1013F000CA590001156E0B0E14C0DBFF0C0E15C090
:10140000DBFF0B0EDBCF06F00C0EDBCF07F0086A1C
:10141000096AE80E0B6E030E0C6E0D6A0E6AE0ECA4
:101420002AF002C006F003C007F004C008F005C0AF
:1014300009F00B68030E0C6E0D6A0E6A18EC2BF0A7
:101440000B0E06C0DBFF0C0E07C0DBFF200EF36E99
:101450001D0EF3CFDBFF0B0EDBCF14F00C0EDBCF3A
:1014600015F0640E0D6E0E6A14C008F015C009F078
:101470008DEC28F008C014F009C015F0300E1426C9
:10148000000E15221E0E14C0DBFF0B0EDBCF14F076
:101490000C0EDBCF15F0640E0D6E0E6A14C008F052
:1014A00015C009F057EC2BF004C014F005C015F07E
:1014B0000A0E0D6E0E6A14C008F015C009F057EC44
:1014C0002BF008C014F009C015F0300E1426000EE1
:1014D00015221F0E14C0DBFF0B0EDBCF14F00C0E19
:1014E000DBCF15F00A0E0D6E0E6A14C008F015C0A1
:1014F00009F057EC2BF004C014F005C015F0300EC5
:101500001426000E1522200E14C0DBFF210EDB6A0C
:10151000C00EE66E8BEC1EF0E552D950110FE66E50
:10152000000EDA20E66E74EC1FF0E552E5524FD261
:10153000070EDBCF14F0080EDBCF15F01450C95D99
:101540001550CA5901E315D2070EDBCF18F0080E6B
:10155000DBCF19F01A6A1B6AC9C01CF0CAC01DF0A3
:101560001E6A1F6A1C50185C146E1D501958156EA7
:101570001E501A58166E1F501B58176E0B0E14C0B3
:10158000DBFF0C0E15C0DBFF0B0EDBCF06F00C0EE5
:10159000DBCF07F0086A096AE80E0B6E030E0C6ECB
:1015A0000D6A0E6AE0EC2AF002C006F003C007F0F4
:1015B00004C008F005C009F00B68030E0C6E0D6A3C
:1015C0000E6A18EC2BF00B0E06C0DBFF0C0E07C0EA
:1015D000DBFF200EF36E110EF3CFDBFF0B0EDBCF24
:1015E00014F00C0EDBCF15F0640E0D6E0E6A14C0F5
:1015F00008F015C009F08DEC28F008C014F009C0FF
:1016000015F0300E1426000E1522120E14C0DBFF4A
:101610000B0EDBCF14F00C0EDBCF15F0640E0D6E4D
:101620000E6A14C008F015C009F057EC2BF004C086
:1016300014F005C015F00A0E0D6E0E6A14C008F005
:1016400015C009F057EC2BF008C014F009C015F0D4
:10165000300E1426000E1522130E14C0DBFF0B0EE5
:10166000DBCF14F00C0EDBCF15F00A0E0D6E0E6AF8
:1016700014C008F015C009F057EC2BF004C014F0AA
:1016800005C015F0300E1426000E1522140E14C0DD
:10169000DBFF200EF36E150EF3CFDBFF7C0EF36E37
:1016A000160EF3CFDBFF200EF36E170EF3CFDBFF2A
:1016B0000D0EDBCF18F00E0EDBCF19F01A6A1B6A85
:1016C000C9C01CF0CAC01DF01E6A1F6A1C50185CFD
:1016D000146E1D501958156E1E501A58166E1F5054
:1016E0001B58176E0B0E14C0DBFF0C0E15C0DBFF72
:1016F0000B0EDBCF06F00C0EDBCF07F0086A096A91
:10170000E80E0B6E030E0C6E0D6A0E6AE0EC2AF00A
:1017100002C006F003C007F004C008F005C009F0DD
:101720000B68030E0C6E0D6A0E6A18EC2BF00B0E94
:1017300006C0DBFF0C0E07C0DBFF0B0EDBCF14F087
:101740000C0EDBCF15F0640E0D6E0E6A14C008F09F
:1017500015C009F08DEC28F008C014F009C015F090
:10176000300E1426000E1522180E14C0DBFF0B0ECF
:10177000DBCF14F00C0EDBCF15F0640E0D6E0E6A8D
:1017800014C008F015C009F057EC2BF004C014F099
:1017900005C015F00A0E0D6E0E6A14C008F015C0D3
:1017A00009F057EC2BF008C014F009C015F0300E0A
:1017B0001426000E1522190E14C0DBFF0B0EDBCF12
:1017C00014F00C0EDBCF15F00A0E0D6E0E6A14C06D
:1017D00008F015C009F057EC2BF004C014F005C058
:1017E00015F0300E1426000E15221A0E14C0DBFF61
:1017F000200EF36E1B0EF3CFDBFF7E0EF36E1C0E7E
:10180000F3CFDBFF0F0EDBCF18F0100EDBCF19F09C
:101810001A6A1B6AC9C01CF0CAC01DF01E6A1F6A82
:101820001C50185C146E1D501958156E1E501A5815
:10183000166E1F501B58176E0B0E14C0DBFF0C0EDC
:1018400015C0DBFF0B0EDBCF06F00C0EDBCF07F075
:10185000086A096AE80E0B6E030E0C6E0D6A0E6ABA
:10186000E0EC2AF002C006F003C007F004C008F064
:1018700005C009F00B68030E0C6E0D6A0E6A18ECB9
:101880002BF00B0E06C0DBFF0C0E07C0DBFF200E9B
:10189000F36E1D0EF3CFDBFF0B0EDBCF14F00C0E3F
:1018A000DBCF15F0640E0D6E0E6A14C008F015C083
:1018B00009F08DEC28F008C014F009C015F0300EC6
:1018C0001426000E15221E0E14C0DBFF0B0EDBCFFC
:1018D00014F00C0EDBCF15F0640E0D6E0E6A14C002
:1018E00008F015C009F057EC2BF004C014F005C047
:1018F00015F00A0E0D6E0E6A14C008F015C009F03E
:1019000057EC2BF008C014F009C015F0300E142667
:10191000000E15221F0E14C0DBFF0B0EDBCF14F0E0
:101920000C0EDBCF15F00A0E0D6E0E6A14C008F017
:1019300015C009F057EC2BF004C014F005C015F0E9
:10194000300E1426000E1522200E14C0DBFF210ECF
:10195000DB6AC00EE66E8BEC1EF0E552D950110F1B
:10196000E66E000EDA20E66E74EC1FF0E552E552EA
:101970002ED00B0EDB6A0C0EDB6A300EF36E110EEE
:10198000F3CFDBFF300EF36E120EF3CFDBFF300E22
:10199000F36E130EF3CFDBFF6D0EF36E140EF3CF69
:1019A000DBFF410EF36E150EF3CFDBFF160EDB6A85
:1019B000C00EE66E8BEC1EF0E552D950110FE66EAC
:1019C000000EDA20E66E74EC1FF0E552E552FD0ED3
:1019D000DB5024E0D9500B0FE96EDACFEAFF320E6C
:1019E000D880EE54000EED540BE30B0EDBCF14F059
:1019F0000C0EDBCF15F00A0E145C000E155806E233
:101A00008C908C928C948C96010E0ED0FC0EDB5038
:101A100003E0FC0EDB0602D0000E06D012EF08F049
:101A200081A6FED7000E00D0146E220EE15C02E209
:101A3000E16AE552E16E1450E552E7CFD9FF12009A
:101A40008150040B13E08150100B10E0E66A53EC58
:101A50000EF0E5528C8AF7EC0EF0080EE66E53ECB1
:101A60000EF0E5528C9AF7EC0EF0EAD7E66A53ECEA
:101A70000EF0E55212009DEC27F0E66A53EC0EF0F2
:101A8000E5528C8AF7EC0EF0080EE66E53EC0EF081
:101A9000E5528C9AF7EC0EF0F0D71200E66A000ED1
:101AA000E66EE66AD90EE66E540EE66E010EE66E3E
:101AB00073EC18F0146E060EE15E1450E66ACC0E5C
:101AC000E66E540EE66E000EE66EE66AE66A73ECAB
:101AD00018F0146E060EE15E1450C2EC0EF0C2EC6B
:101AE0000EF000D01200D9CFE6FFE1CFD9FFE652C9
:101AF000DF6AE66A3EEC26F0E5520AEC21F00001CE
:101B0000CC514CE0E66A000EE66EE66AC70EE66E61
:101B1000540EE66E010EE66E73EC18F0146E060EAF
:101B2000E15E1450180EE66E3EEC26F0E552815050
:101B3000040B03E18150100B30E09EAA2DD09E9A39
:101B4000AE50DF6E520EDF5C12E1020EE66E000E4A
:101B5000E66EE66AC40EE66E540EE66E010EE66EA2
:101B600073EC18F0146E060EE15E145016D0540E8D
:101B7000DF5C12E1020EE66E000EE66EE66ABE0E55
:101B8000E66E540EE66E010EE66E73EC18F0146EFF
:101B9000060EE15E145001D0CAD710D0E66A000EDE
:101BA000E66EE66ABB0EE66E540EE66E010EE66E5B
:101BB00073EC18F0146E060EE15E1450C2EC0EF0D9
:101BC000E552E552E7CFD9FF1200D9CFE6FFE1CFCA
:101BD000D9FF0B0EE126B20EDE6E540EDD6ED9502B
:101BE000020FE96EDACFEAFFAA0EEE6E540EED6E2A
:101BF000D950040FE96EDACFEAFFA50EEE6E540E4F
:101C0000ED6ED950060FE96EDACFEAFF9C0EEE6E4C
:101C10001A0EED6ED950080FE96EDACFEAFFE60E24
:101C2000EE6E1A0EED6E030EF36E0A0EF3CFDBFFAF
:101C3000F098E66A000EE66EE66AA00EE66E540EB6
:101C4000E66E010EE66E73EC18F0146E060EE15EA1
:101C50001450C2EC0EF081A8FED7D950060FE66EE4
:101C6000000EDA20E66ED9CFE6FFDACFE6FF0A0EE5
:101C7000DBCFE6FF2FEC07F0146E050EE15E14508B
:101C8000FF000B0EE15C02E2E16AE552E16EE55213
:061C9000E7CFD9FF1200AE
:0A1C96008D948D8296EF0FF08D946F
:101CA0008D9296EF0FF0D9CFE6FFE1CFD9FFE55245
:101CB000E7CFD9FF1200D9CFE6FFE1CFD9FFE65237
:101CC000FE0EDB50A96E3F0EA616A680A6B0FED76C
:101CD000A850DF6EDF5000D0E552E552E7CFD9FFC4
:101CE0001200D9CFE6FFE1CFD9FFFD0EDB50A96E80
:101CF000FE0EDB50A86E3F0EA616A684F29E550E71
:101D0000A76EAA0EA76EA682F28EA6BAFED70ED92D
:101D1000A694E552E7CFD9FF1200D9CFE6FFE1CF75
:101D2000D9FF040EE126020EDB6A030EDB6A020E07
:101D3000DBCF14F0030EDBCF15F01E0E145C000E8B
:101D4000155816E2DE6ADD6ADECF14F0DDCF15F03D
:101D5000490E145C000E155805E2DF2A010E01E35E
:101D6000DB2AF2D7020EDB2A030E01E3DB2ADFD7E0
:101D7000040EE15C02E2E16AE552E16EE552E7CF72
:101D8000D9FF1200D9CFE6FFE1CFD9FF040EE1263B
:101D9000020EDB6A030EDB6A020EDBCF14F0030EC9
:101DA000DBCF15F0500E145C000E155816E2DE6AFB
:101DB000DD6ADECF14F0DDCF15F0FC0E145C260ECC
:101DC000155805E2DF2A010E01E3DB2AF2D7020EE5
:101DD000DB2A030E01E3DB2ADFD7040EE15C02E21B
:101DE000E16AE552E16EE552E7CFD9FF1200D9CFA3
:101DF000E6FFE1CFD9FF040EE126020EDB6A030EF7
:101E0000DB6A020EDBCF14F0030EDBCF15F01C0EE5
:101E1000145C000E155816E2DE6ADD6ADECF14F09F
:101E2000DDCF15F0C00E145C260E155805E2DF2A32
:101E3000010E01E3DB2AF2D7020EDB2A030E01E3D7
:101E4000DB2ADFD7040EE15C02E2E16AE552E16ED3
:101E5000E552E7CFD9FF1200D9CFE6FFE1CFD9FF96
:101E6000040EE126020EDB6A030EDB6A020EDBCFF4
:101E700014F0030EDBCF15F00E0E145C000E155897
:101E800016E2DE6ADD6ADECF14F0DDCF15F0C00E9B
:101E9000145C260E155805E2DF2A010E01E3DB2A49
:101EA000F2D7020EDB2A030E01E3DB2ADFD7040E92
:101EB000E15C02E2E16AE552E16EE552E7CFD9FF6B
:101EC0001200D9CFE6FFE1CFD9FF040EE126020EC2
:101ED000DB6A030EDB6A020EDBCF14F0030EDBCFEE
:101EE00015F0060E145C000E155816E2DE6ADD6A67
:101EF000DECF14F0DDCF15F0310E145C240E155832
:101F000005E2DF2A010E01E3DB2AF2D7020EDB2A0B
:101F1000030E01E3DB2ADFD7040EE15C02E2E16A93
:101F2000E552E16EE552E7CFD9FF1200D9CFE6FFC7
:101F3000E1CFD9FF040EE126020EDB6A030EDB6A55
:101F4000020EDBCF14F0030EDBCF15F0145C000E95
:101F5000155816E2DE6ADD6ADECF14F0DDCF15F02B
:101F6000280E145C230E155805E2DF2A010E01E34A
:101F7000DB2AF2D7020EDB2A030E01E3DB2AE0D7CD
:101F8000040EE15C02E2E16AE552E16EE552E7CF60
:101F9000D9FF1200D9CFE6FFE1CFD9FF040EE12629
:101FA000020EDB6A030EDB6A020EDBCF14F0030EB7
:101FB000DBCF15F0145C000E155816E2DE6ADD6A00
:101FC000DECF14F0DDCF15F0410E145C000E155875
:101FD00005E2DF2A010E01E3DB2AF2D7020EDB2A3B
:101FE000030E01E3DB2AE0D7040EE15C02E2E16AC2
:101FF000E552E16EE552E7CFD9FF1200D9CFE6FFF7
:10200000E1CFD9FF040EE126020EDB6A030EDB6A84
:10201000020EDBCF14F0030EDBCF15F0145C000EC4
:10202000155816E2DE6ADD6ADECF14F0DDCF15F05A
:10203000B40E145C000E155805E2DF2A010E01E310
:10204000DB2AF2D7020EDB2A030E01E3DB2AE0D7FC
:10205000040EE15C02E2E16AE552E16EE552E7CF8F
:10206000D9FF12000B0EC16E350EC06EC26A12008F
:10207000D9CFE6FFE1CFD9FF100EE126DE6ADD6A97
:10208000020EDB6A030EDB6A040EDB6A050EDB6AF6
:10209000060EDB6A070EDB6A080EDB6A090EDB6AD6
:1020A000140EF36E0A0EF3CFDBFF0B0EDB6A0C0E81
:1020B000DB6A0D0EDB6A0E0EDB6A0F0EDB6AFE0EAC
:1020C000DB50040A15E0070A10E0010A0BE0030ADE
:1020D00006E0010A01E00FD0010EC26E0CD0050E21
:1020E000C26E09D0090EC26E06D00D0EC26E03D0AC
:1020F000110EC26E00D0060EDBCF14F0070EDBCF40
:1021000015F00A0EDBCF16F00B0EDBCF17F01650D2
:10211000145C175015586FE2060EDB2A070E01E318
:10212000DB2AC2820000C2B2FED7C450DE6EDD6A76
:10213000C350E66ED950020FE96EDACFEAFFE552DE
:10214000E750EE6EED6ADECF14F0DDCF15F0D890DB
:1021500014361536D8901436153614C0DEFF15C067
:10216000DDFF020EDBCF14F0030EDBCF15F0060E01
:10217000D89015321432E804FBE1020E14C0DBFFE4
:10218000030E15C0DBFF020EDBCF16F0030EDBCF14
:1021900017F0DE501610146EDD501710156E040E79
:1021A00014C0DBFF050E15C0DBFF040EDBCF14F0FF
:1021B000050EDBCF15F0166A176AD9500C0FE96EC1
:1021C000DACFEAFFEE501426EE501522EE5016221A
:1021D000EE5017220C0E14C0DBFF0D0E15C0DBFFF6
:1021E0000E0E16C0DBFF0F0E17C0DBFF0000000055
:1021F0000000000080D70A0EDBCF14F00B0EDBCFFF
:1022000015F0166A176A14C00BF015C00CF016C052
:102210000DF017C00EF00C0EDBCF06F00D0EDBCF6D
:1022200007F00E0EDBCF08F00F0EDBCF09F018EC35
:102230002BF0080E06C0DBFF090E07C0DBFF080EFF
:10224000DBCF14F0090EDBCF15F014C0F3FF15C07F
:10225000F4FF00D0100EE15C02E2E16AE552E16EAB
:10226000E552E7CFD9FF1200D9CFE6FFE1CFD9FF82
:10227000040EE1260001CC0508E1DA0EE66E530EED
:10228000E66EF3EC25F0E552E552959095928C8040
:102290008C924CDE4BDEDE6ADD6ADECF14F0DDCFE1
:1022A00015F02C0E145C010E15582EE23FDEE66A86
:1022B000DFDEE552020EF3CFDBFF030EF4CFDBFFD0
:1022C0000001CC0510E1020EDBCFE6FF030EDBCFF1
:1022D000E6FFDECFE6FFDDCFE6FFA6EC24F0E55219
:1022E000E552E552E552D950020FE96EDACFEAFF26
:1022F0005C0ED880EE54030EED5401E205D0DF2AC7
:10230000010E01E3DB2AC9D78C9015EC26F0D9CF5A
:10231000E9FFDACFEAFF2C0EEE1802E1010EED180C
:1023200039E18C8AE66A850EE66E560EE66E000E80
:10233000E66EE66AE66A73EC18F0146E060EE15E6D
:1023400014504BEC26F0850EE66E560EE66EF3EC5E
:1023500025F0E552E55216DD15DD14DD8C9ABF0E31
:10236000E96E000EEA6EEF50F00BE842E842E842F8
:10237000E842E82AF36EF3500F0BF36EF46EF34667
:10238000F346F346F3460F0EEF14F310EF6EF450DE
:10239000010E07D00001BF99BF9BBF9DBF9F000EDC
:1023A00000D0146E040EE15C02E2E16AE552E16ED7
:1023B0001450E552E7CFD9FF1200D9CFE6FFE1CFA5
:1023C000D9FF040EE1260001CC0508E1D00EE66E2F
:1023D000530EE66EF3EC25F0E552E552959095929A
:1023E0008C908C82A3DDA2DDDE6ADD6ADECF14F084
:1023F000DDCF15F02C0E145C010E15582EE296DD83
:10240000E66A36DEE552020EF3CFDBFF030EF4CFB1
:10241000DBFF0001CC0510E1020EDBCFE6FF030E6F
:10242000DBCFE6FFDECFE6FFDDCFE6FFA6EC24F054
:10243000E552E552E552E552020EDBCF14F0030EF1
:10244000DBCF15F0510E145C020E155801E205D0D9
:10245000DF2A010E01E3DB2AC9D78C9215EC26F0A6
:10246000D9CFE9FFDACFEAFF2C0EEE1802E1010E18
:10247000ED1831E18C8AE66A780EE66E560EE66E4D
:10248000000EE66EE66AE66A73EC18F0146E060E4D
:10249000E15E14504BEC26F0780EE66E560EE66EBA
:1024A000F3EC25F0E552E5526DDC6CDC6BDC8C9ACC
:1024B000BF0EE96E000EEA6EEF500F0BE82AF36EC6
:1024C000F3500F0BF36EF46EF00EEF14F310EF6E8B
:1024D000F450010E07D00001BF91BF93BF95BF9785
:1024E000000E00D0146E040EE15C02E2E16AE552D7
:1024F000E16E1450E552E7CFD9FF1200D9CFE6FFC5
:10250000E1CFD9FF040EE1260001CC0508E1C50E9C
:10251000E66E530EE66EF3EC25F0E552E552959427
:1025200095968C848C9602DD01DDDE6ADD6ADECF55
:1025300014F0DDCF15F02C0E145C010E15582FE2AF
:10254000F5DC010EE66E94DDE552020EF3CFDBFF03
:10255000030EF4CFDBFF0001CC0510E1020EDBCF50
:10256000E6FF030EDBCFE6FFDECFE6FFDDCFE6FFC3
:10257000A6EC24F0E552E552E552E552D950020F9F
:10258000E96EDACFEAFF5C0ED880EE54030EED540C
:1025900001E205D0DF2A010E01E3DB2AC8D78C94C3
:1025A00015EC26F0D9CFE9FFDACFEAFF2C0EEE18B2
:1025B00002E1010EED183DE18C8AE66AA00EE66E9E
:1025C000560EE66E000EE66EE66AE66A73EC18F0EA
:1025D000146E060EE15E14504BEC26F0A00EE66E73
:1025E000560EE66EF3EC25F0E552E552C2EC0EF025
:1025F000C2EC0EF0C2EC0EF08C9ABF0EE96E000E2B
:10260000EA6EEE52EF50F00BE842E842E842E84250
:10261000E82AF36EF3500F0BF36EF46EF346F346B5
:10262000F346F3460F0EEF14F310EF6EF450010E65
:1026300007D00001C099C09BC09DC09F000E00D074
:10264000146E040EE15C02E2E16AE552E16E1450A0
:10265000E552E7CFD9FF1200D9CFE6FFE1CFD9FF8E
:10266000040EE1260001CC0508E1BB0EE66E530E18
:10267000E66EF3EC25F0E552E552959495968C9430
:102680008C8654DC53DCDE6ADD6ADECF14F0DDCFED
:1026900015F02C0E145C010E15582FE247DC010ECC
:1026A000E66EE6DCE552020EF3CFDBFF030EF4CF5D
:1026B000DBFF0001CC0510E1020EDBCFE6FF030ECD
:1026C000DBCFE6FFDECFE6FFDDCFE6FFA6EC24F0B2
:1026D000E552E552E552E552020EDBCF14F0030E4F
:1026E000DBCF15F0510E145C020E155801E205D037
:1026F000DF2A010E01E3DB2AC8D78C9615EC26F001
:10270000D9CFE9FFDACFEAFF2C0EEE1802E1010E75
:10271000ED1835E18C8AE66A930EE66E560EE66E8B
:10272000000EE66EE66AE66A73EC18F0146E060EAA
:10273000E15E14504BEC26F0930EE66E560EE66EFC
:10274000F3EC25F0E552E552C2EC0EF0C2EC0EF0CF
:10275000C2EC0EF08C9ABF0EE96E000EEA6EEE52DD
:10276000EF500F0BE82AF36EF3500F0BF36EF46E7D
:10277000F00EEF14F310EF6EF450010E07D00001CD
:10278000C091C093C095C097000E00D0146E040E87
:10279000E15C02E2E16AE552E16E1450E552E7CFF6
:1027A000D9FF1200D9CFE6FFE1CFD9FF040EE12611
:1027B000959095928C808C9296EC0FF096EC0FF0A1
:1027C000DE6ADD6ADECF14F0DDCF15F0370E145C63
:1027D000000E155807E296EC0FF0DF2A010E01E318
:1027E000DB2AF0D78C900000040EE15C02E2E16A83
:1027F000E552E16EE552E7CFD9FF1200D9CFE6FFEF
:10280000E1CFD9FF040EE126959095928C908C82B1
:1028100096EC0FF096EC0FF0DE6ADD6ADECF14F076
:10282000DDCF15F02D0E145C000E155807E296EC66
:102830000FF0DF2A010E01E3DB2AF0D78C920000B3
:10284000040EE15C02E2E16AE552E16EE552E7CF97
:10285000D9FF1200D9CFE6FFE1CFD9FF0A0EE1265A
:102860000001CC0508E1AD0EE66E530EE66EF3EC0A
:1028700025F0E552E552959095928C928C8096ECDD
:102880000FF096EC0FF0DE6ADD6ADECF14F0DDCFDC
:1028900015F0C80E145C000E155830E296EC0FF0DF
:1028A000E66A38EC10F0E552020EF3CFDBFF030EC0
:1028B000F4CFDBFF0001CC0510E1020EDBCFE6FF19
:1028C000030EDBCFE6FFDECFE6FFDDCFE6FFA6ECB3
:1028D00024F0E552E552E552E552D950020FE96E77
:1028E000DACFEAFF5C0ED880EE54030EED5401E21D
:1028F00005D0DF2A010E01E3DB2AC7D78C9015EC47
:1029000026F0DECF14F0DDCF15F0500E145C000E73
:1029100015580BE3D9CFE9FFDACFEAFF800ED88054
:10292000EE54000EED5401E3A6D08C8A540EF36EE3
:10293000040EF3CFDBFF3A0EF36E050EF3CFDBFF91
:10294000DECF14F0DDCF15F0640E0D6E0E6A14C0EC
:1029500008F015C009F057EC2BF008C014F009C0BE
:1029600015F0300E1426000E1522060E14C0DBFFE3
:10297000DECF14F0DDCF15F00A0E0D6E0E6A14C016
:1029800008F015C009F057EC2BF008C014F009C08E
:1029900015F00A0E0D6E0E6A14C008F015C009F08D
:1029A00057EC2BF004C014F005C015F0300E1426BF
:1029B000000E1522070E14C0DBFFDECF14F0DDCFB2
:1029C00015F00A0E0D6E0E6A14C008F015C009F05D
:1029D00057EC2BF004C014F005C015F0300E14268F
:1029E000000E1522080E14C0DBFF090EDB6AE66A32
:1029F000660EE66E000EE66ED950040FE66E000E0F
:102A0000DA20E66E010EE66EBDEC18F0146E060ECE
:102A1000E15E14500001CC050AE14BEC26F0660E95
:102A2000E66E000EE66EC6EC25F0E552E552C2EC0D
:102A30000EF0C2EC0EF0C2EC0EF08C9ABF0EE96EF6
:102A4000000EEA6EEE52EE52EF50F00BE842E84212
:102A5000E842E842E82AF36EF3500F0BF36EF46E8F
:102A6000F346F346F346F3460F0EEF14F310EF6E02
:102A7000F450020E07D00001C199C19BC19DC19FB6
:102A8000000E00D0146E0A0EE15C02E2E16AE5522B
:102A9000E16E1450E552E7CFD9FF1200D9CFE6FF1F
:102AA000E1CFD9FF0A0EE1260001CC0508E1A00E16
:102AB000E66E530EE66EF3EC25F0E552E552959482
:102AC00095968C948C8696EC0FF096EC0FF0DE6A5F
:102AD000DD6ADECF14F0DDCF15F0C80E145C000EF9
:102AE000155831E296EC0FF0010EE66E38EC10F05E
:102AF000E552020EF3CFDBFF030EF4CFDBFF000144
:102B0000CC0510E1020EDBCFE6FF030EDBCFE6FFC4
:102B1000DECFE6FFDDCFE6FFA6EC24F0E552E5527E
:102B2000E552E552020EDBCF14F0030EDBCF15F0B9
:102B3000510E145C020E155801E205D0DF2A010E79
:102B400001E3DB2AC6D78C9615EC26F0DECF14F015
:102B5000DDCF15F0500E145C000E15580BE3D9CFE5
:102B6000E9FFDACFEAFF800ED880EE54000EED5474
:102B700001E39FD08C8A540EF36E040EF3CFDBFF7B
:102B80003A0EF36E050EF3CFDBFFDECF14F0DDCF90
:102B900015F0640E0D6E0E6A14C008F015C009F031
:102BA00057EC2BF008C014F009C015F0300E1426B5
:102BB000000E1522060E14C0DBFFDECF14F0DDCFB1
:102BC00015F00A0E0D6E0E6A14C008F015C009F05B
:102BD00057EC2BF008C014F009C015F00A0E0D6E6A
:102BE0000E6A14C008F015C009F057EC2BF004C0B1
:102BF00014F005C015F0300E1426000E1522070E35
:102C000014C0DBFFDECF14F0DDCF15F00A0E0D6E21
:102C10000E6A14C008F015C009F057EC2BF004C080
:102C200014F005C015F0300E1426000E1522080E03
:102C300014C0DBFF090EDB6AE66A980EE66E000E32
:102C4000E66ED950040FE66E000EDA20E66E010E35
:102C5000E66EBDEC18F0146E060EE15E1450000135
:102C6000CC050AE14BEC26F0980EE66E000EE66EFF
:102C7000C6EC25F0E552E552C2EC0EF0C2EC0EF0C7
:102C8000C2EC0EF08C9ABF0EE96E000EEA6EEE52A8
:102C9000EE52EE52EF500F0BE82AF36EF3500F0B8B
:102CA000F36EF46EF00EEF14F310EF6EF450020EAC
:102CB00007D00001C291C293C295C297000E00D006
:102CC000146E0A0EE15C02E2E16AE552E16E145014
:102CD000E552E7CFD9FF1200D9CFE6FFE1CFD9FF08
:102CE000020EE126DE6ADD6ADECF14F0DDCF15F0DC
:102CF0008A0E145C020E15580BE28C8EFEEC0FF05F
:102D00008C9EFEEC0FF0DF2A010E01E3DB2AECD7EC
:102D1000020EE15C02E2E16AE552E16EE552E7CFC4
:102D2000D9FF1200D9CFE6FFE1CFD9FF020EE1268D
:102D3000DE6ADD6ADECF14F0DDCF15F0450E145CDF
:102D4000010E15580FE28C8EFEEC0FF0FEEC0FF02A
:102D50008C9EFEEC0FF0FEEC0FF0DF2A010E01E37B
:102D6000DB2AE8D7020EE15C02E2E16AE552E16E9D
:102D7000E552E7CFD9FF1200F198F092F08EF0887B
:102D8000F28E1200D9CFE6FFE1CFD9FF2A0EE1265D
:102D9000D950140FE96EDACFEAFF500EEE6E3D0EF9
:102DA000EE6E200EEE6EEE6EEE6EEE6EEE6EEE6E71
:102DB000EE6EEE6E540EEE6E3D0EEE6E200EEE6E6C
:102DC000EE6EEE6E730EEE6EEE6AEE6AFD0EDBCF09
:102DD00062F0FE0EDBCF63F062C008F063C009F062
:102DE00025EC28F00C0E07C0DBFF0D0E08C0DBFF42
:102DF0000E0E09C0DBFF0F0E0AC0DBFF0C0EDBCF8F
:102E000014F00D0EDBCF15F00E0EDBCF16F00F0E0B
:102E1000DBCF17F0AA0E0C6E820E0D6E510E0E6EE9
:102E20003E0E0F6E14C007F015C008F016C009F072
:102E300017C00AF03AEC28F0D1EC28F0260E06C0B4
:102E4000DBFF270E07C0DBFF280E08C0DBFF290EC3
:102E500009C0DBFFE80E146E030E156E260EDBCFE5
:102E600008F0270EDBCF09F014C00DF015C00EF0EE
:102E70008DEC28F0100E08C0DBFF260EDBCF06F02D
:102E8000270EDBCF07F0280EDBCF08F0290EDBCFB3
:102E900009F0E80E0B6E030E0C6E0D6A0E6A18EC4C
:102EA0002BF002C006F003C007F004C008F005C014
:102EB00009F0640E0B6E0C6A0D6A0E6A18EC2BF0AA
:102EC000110E06C0DBFF260EDBCF06F0270EDBCF90
:102ED00007F0280EDBCF08F0290EDBCF09F0640ED7
:102EE0000B6E0C6A0D6A0E6A18EC2BF002C006F02D
:102EF00003C007F004C008F005C009F00A0E0B6E0D
:102F00000C6A0D6A0E6A18EC2BF0120E06C0DBFF7D
:102F1000260EDBCF06F0270EDBCF07F0280EDBCF27
:102F200008F0290EDBCF09F00A0E0B6E0C6A0D6A51
:102F30000E6A18EC2BF0130E02C0DBFF2C0EF36EA2
:102F4000030EF3CFDBFF100EDB50300FE76E160ED3
:102F5000E7CFDBFFDB50E76E040EE7CFDBFF2E0E83
:102F6000F36E170EF3CFDBFF2E0EF36E050EF3CFCD
:102F7000DBFF110EDB50300FE76E180EE7CFDBFFE3
:102F8000DB50E76E060EE7CFDBFF120EDB50300F93
:102F9000E76E190EE7CFDBFFDB50E76E070EE7CFDA
:102FA000DBFF130EDB50300FE76E1A0EE7CFDBFFAF
:102FB000DB50E76E080EE7CFDBFF560EF36E1B0EFD
:102FC000F3CFDBFF0A0EF36E090EF3CFDBFF0A0E21
:102FD000DB6A640E146E156A64C008F065C009F0FF
:102FE00014C00DF015C00EF08DEC28F0100E08C0C6
:102FF000DBFF64C014F065C015F0640E0D6E0E6A40
:1030000014C008F015C009F057EC2BF004C014F000
:1030100005C015F00A0E0D6E0E6A14C008F015C03A
:1030200009F057EC2BF008C014F009C015F0110E90
:1030300014C0DBFF64C014F065C015F00A0E0D6EFD
:103040000E6A14C008F015C009F057EC2BF004C04C
:1030500014F005C015F0120E14C0DBFF100EDB508B
:10306000300FE76E200EE7CFDBFFDB50DF6E110E77
:10307000DB50300FE76E210EE7CFDBFFDB50E76E52
:10308000010EE7CFDBFF120EDB50300FE76E220E92
:10309000E7CFDBFFDB50E76E020EE7CFDBFF00017F
:1030A000CC0508E1D9CFE6FFDACFE6FFC6EC25F084
:1030B000E552E552C00EE66E8BEC1EF0E552D9509B
:1030C000140FE66E000EDA20E66E74EC1FF0E55287
:1030D000E5522A0EE15C02E2E16AE552E16EE55258
:0630E000E7CFD9FF12004A
:0A30E600D9CFE6FFE1CFD9FFFE0EBF
:1030F000DB5005E0010EE66E8BEC1EF0E552D95078
:10310000FC0FE96EFF0EDA20EA6EEE50ED100FE0D4
:10311000800EE66E8BEC1EF0E552FC0EDBCFE6FF78
:10312000FD0EDBCFE6FF0DEC1FF0E552E552D95066
:10313000FA0FE96EFF0EDA20EA6EEE50ED100FE0A6
:10314000C00EE66E8BEC1EF0E552FA0EDBCFE6FF0A
:10315000FB0EDBCFE6FF0DEC1FF0E552E552F90E5A
:10316000DBCFF3FFDB06F350000903E0C2EC0EF007
:10317000F6D7E552E7CFD9FF1200D9CFE6FFE1CF6E
:10318000D9FFFE0EDB5005E0010EE66E8BEC1EF063
:10319000E552D950FC0FE96EFF0EDA20EA6EEE50D0
:1031A000ED100FE0800EE66E8BEC1EF0E552FC0E8B
:1031B000DBCFE6FFFD0EDBCFE6FF74EC1FF0E55240
:1031C000E552D950FA0FE96EFF0EDA20EA6EEE50A2
:1031D000ED100FE0C00EE66E8BEC1EF0E552FA0E1D
:1031E000DBCFE6FFFB0EDBCFE6FF74EC1FF0E55212
:1031F000E552F90EDBCFF3FFDB06F350000903E0E5
:10320000C2EC0EF0F6D7E552E7CFD9FF1200D9CFC6
:10321000E6FFE1CFD9FF150EE126A8C0DFFF010EC2
:10322000A9C0DBFF020EAAC0DBFF030EABC0DBFFB1
:10323000540EF36E040EF3CFDBFFD9CFE9FFDACFE4
:10324000EAFFEECF14F0EECF15F0EECF16F0EFCF91
:1032500017F00A0E0B6E0C6A0D6A0E6A14C006F0A7
:1032600015C007F016C008F017C009F018EC2BF0D5
:1032700002C014F003C015F004C016F005C017F02A
:10328000300E1426000E1522162217220B0E14C023
:10329000DBFFD9CFE9FFDACFEAFFEECF06F0EECFC2
:1032A00007F0EECF08F0EFCF09F00A0E0B6E0C6AB4
:1032B0000D6A0E6A18EC2BF006C0DEFF07C0DEFFB9
:1032C00008C0DEFF09C0DDFFDD52DD52D9CFE9FFC6
:1032D000DACFEAFFEECF14F0EECF15F0EECF16F016
:1032E000EFCF17F00A0E0B6E0C6A0D6A0E6A14C04F
:1032F00006F015C007F016C008F017C009F018EC6A
:103300002BF002C014F003C015F004C016F005C085
:1033100017F0300E1426000E1522162217220A0E60
:1033200014C0DBFFD9CFE9FFDACFEAFFEECF06F01A
:10333000EECF07F0EECF08F0EFCF09F00B6E0C6A7E
:103340000D6A0E6A18EC2BF006C0DEFF07C0DEFF28
:1033500008C0DEFF09C0DDFFDD52DD52D9CFE9FF35
:10336000DACFEAFFEECF14F0EECF15F0EECF16F085
:10337000EFCF17F00A0E0B6E0C6A0D6A0E6A14C0BE
:1033800006F015C007F016C008F017C009F018ECD9
:103390002BF002C014F003C015F004C016F005C0F5
:1033A00017F0300E1426000E152216221722090ED1
:1033B00014C0DBFFD9CFE9FFDACFEAFFEECF06F08A
:1033C000EECF07F0EECF08F0EFCF09F00A0E0B6E4C
:1033D0000C6A0D6A0E6A18EC2BF006C0DEFF07C0FF
:1033E000DEFF08C0DEFF09C0DDFFDD52DD52D9CFB0
:1033F000E9FFDACFEAFFEECF14F0EECF15F0EECF13
:1034000016F0EFCF17F00A0E0B6E0C6A0D6A0E6AFB
:1034100014C006F015C007F016C008F017C009F078
:1034200018EC2BF002C014F003C015F004C016F025
:1034300005C017F0300E1426000E15221622172292
:10344000080E14C0DBFFD9CFE9FFDACFEAFFEECFD9
:1034500006F0EECF07F0EECF08F0EFCF09F00A0E3E
:103460000B6E0C6A0D6A0E6A18EC2BF006C0DEFFBC
:1034700007C0DEFF08C0DEFF09C0DDFFDD52DD5200
:10348000D9CFE9FFDACFEAFFEECF14F0EECF15F097
:10349000EECF16F0EFCF17F00A0E0B6E0C6A0D6A26
:1034A0000E6A14C006F015C007F016C008F017C069
:1034B00009F018EC2BF002C014F003C015F004C0A2
:1034C00016F005C017F0300E1426000E1522162235
:1034D0001722070E14C0DBFFD9CFE9FFDACFEAFFCE
:1034E000EECF06F0EECF07F0EECF08F0EFCF09F009
:1034F0000A0E0B6E0C6A0D6A0E6A18EC2BF006C0F1
:10350000DEFF07C0DEFF08C0DEFF09C0DDFFDD52C1
:10351000DD52D9CFE9FFDACFEAFFEECF14F0EECFDC
:1035200015F0EECF16F0EFCF17F00A0E0B6E0C6A07
:103530000D6A0E6A14C006F015C007F016C008F038
:1035400017C009F018EC2BF002C014F003C015F0FE
:1035500004C016F005C017F0300E1426000E152218
:1035600016221722060E14C0DBFFD9CFE9FFDACFEF
:10357000EAFFEECF06F0EECF07F0EECF08F0EFCF88
:1035800009F00A0E0B6E0C6A0D6A0E6A18EC2BF02D
:1035900006C0DEFF07C0DEFF08C0DEFF09C0DDFF9A
:1035A000DD52DD52D9CFE9FFDACFEAFFEECF14F0DA
:1035B000EECF15F0EECF16F0EFCF17F00A0E0B6E30
:1035C0000C6A0D6A0E6A14C006F015C007F016C02A
:1035D00008F017C009F018EC2BF002C014F003C07B
:1035E00015F004C016F005C017F0300E1426000EBA
:1035F000152216221722050E14C0DBFFD9CFE9FFD2
:10360000DACFEAFFEECF06F0EECF07F0EECF08F00C
:10361000EFCF09F00A0E0B6E0C6A0D6A0E6A18ECF9
:103620002BF006C0DEFF07C0DEFF08C0DEFF09C0CA
:10363000DDFFDD52DD527C0EF36E0C0EF3CFDBFFAF
:10364000ACC0DFFF010EADC0DBFF020EAEC0DBFF82
:10365000030EAFC0DBFF500EF36E0D0EF3CFDBFF9A
:10366000D9CFE9FFDACFEAFFEECF14F0EECF15F0B5
:10367000EECF16F0EFCF17F00A0E0B6E0C6A0D6A44
:103680000E6A14C006F015C007F016C008F017C087
:1036900009F018EC2BF002C014F003C015F004C0C0
:1036A00016F005C017F0300E1426000E1522162253
:1036B0001722130E14C0DBFFD9CFE9FFDACFEAFFE0
:1036C000EECF06F0EECF07F0EECF08F0EFCF09F027
:1036D0000A0E0B6E0C6A0D6A0E6A18EC2BF006C00F
:1036E000DEFF07C0DEFF08C0DEFF09C0DDFFDD52E0
:1036F000DD52D9CFE9FFDACFEAFFEECF14F0EECFFB
:1037000015F0EECF16F0EFCF17F00A0E0B6E0C6A25
:103710000D6A0E6A14C006F015C007F016C008F056
:1037200017C009F018EC2BF002C014F003C015F01C
:1037300004C016F005C017F0300E1426000E152236
:1037400016221722120E14C0DBFFD9CFE9FFDACF01
:10375000EAFFEECF06F0EECF07F0EECF08F0EFCFA6
:1037600009F00A0E0B6E0C6A0D6A0E6A18EC2BF04B
:1037700006C0DEFF07C0DEFF08C0DEFF09C0DDFFB8
:10378000DD52DD52D9CFE9FFDACFEAFFEECF14F0F8
:10379000EECF15F0EECF16F0EFCF17F00A0E0B6E4E
:1037A0000C6A0D6A0E6A14C006F015C007F016C048
:1037B00008F017C009F018EC2BF002C014F003C099
:1037C00015F004C016F005C017F0300E1426000ED8
:1037D000152216221722110E14C0DBFFD9CFE9FFE4
:1037E000DACFEAFFEECF06F0EECF07F0EECF08F02B
:1037F000EFCF09F00A0E0B6E0C6A0D6A0E6A18EC18
:103800002BF006C0DEFF07C0DEFF08C0DEFF09C0E8
:10381000DDFFDD52DD52D9CFE9FFDACFEAFFEECF8F
:1038200014F0EECF15F0EECF16F0EFCF17F00A0E32
:103830000B6E0C6A0D6A0E6A14C006F015C007F014
:1038400016C008F017C009F018EC2BF002C014F0F5
:1038500003C015F004C016F005C017F0300E142692
:10386000000E152216221722100E14C0DBFFD9CF2E
:10387000E9FFDACFEAFFEECF06F0EECF07F0EECFAA
:1038800008F0EFCF09F00A0E0B6E0C6A0D6A0E6A93
:1038900018EC2BF006C0DEFF07C0DEFF08C0DEFF1D
:1038A00009C0DDFFDD52DD52D9CFE9FFDACFEAFFF3
:1038B000EECF14F0EECF15F0EECF16F0EFCF17F0FD
:1038C0000A0E0B6E0C6A0D6A0E6A14C006F015C063
:1038D00007F016C008F017C009F018EC2BF002C072
:1038E00014F003C015F004C016F005C017F0300E38
:1038F0001426000E1522162217220F0E14C0DBFF0D
:10390000D9CFE9FFDACFEAFFEECF06F0EECF07F02E
:10391000EECF08F0EFCF09F00A0E0B6E0C6A0D6ABD
:103920000E6A18EC2BF006C0DEFF07C0DEFF08C0F1
:10393000DEFF09C0DDFFDD52DD52D9CFE9FFDACF6E
:10394000EAFFEECF14F0EECF15F0EECF16F0EFCF8A
:1039500017F00A0E0B6E0C6A0D6A0E6A14C006F0A0
:1039600015C007F016C008F017C009F018EC2BF0CE
:1039700002C014F003C015F004C016F005C017F023
:10398000300E1426000E1522162217220E0E14C019
:10399000DBFFD9CFE9FFDACFEAFFEECF06F0EECFBB
:1039A00007F0EECF08F0EFCF09F00A0E0B6E0C6AAD
:1039B0000D6A0E6A18EC2BF006C0DEFF07C0DEFFB2
:1039C00008C0DEFF09C0DDFFDD52DD52D9CFE9FFBF
:1039D000DACFEAFFEECF06F0EECF07F0EECF08F039
:1039E000EFCF09F00A0E0B6E0C6A0D6A0E6A18EC26
:1039F0002BF006C0DEFF07C0DEFF08C0DEFF09C0F7
:103A0000DDFFDD52DD52140EDB6A800EE66E83D9D7
:103A1000E552D950040FE66E000EDA20E66E64DA45
:103A2000E552E552150EE15C02E2E16AE552E16E13
:103A3000E552E7CFD9FF1200D9CFE6FFE1CFD9FF9A
:103A4000020EE126DC0EDE6E050EDD6E080EE66E61
:103A500053EC0EF0E55281A452D0DECF14F0DDCF4E
:103A600015F0F40E0D6E010E0E6E14C008F015C0A8
:103A700009F057EC2BF004C014F005C015F01450F9
:103A8000151032E18C7AD9CFE9FFDACFEAFFDC0EEC
:103A9000EE1802E1050EED1816E1E66A060EE66E76
:103AA000550EE66E080EE66E550EE66E010EE66EDB
:103AB00073EC18F0146E060EE15E1450E66A53ECD7
:103AC0000EF0E55211D0D9CFE9FFDACFEAFFB80EF8
:103AD000EE1802E10B0EED1807E1DE6ADD6A080E52
:103AE000E66E53EC0EF0E552DF2A010E01E3DB2A0D
:103AF000FEEC0FF0FEEC0FF0FEEC0FF0ACD7E66A38
:103B000053EC0EF0E5528C9A020EE15C02E2E16A9F
:103B1000E552E16EE552E7CFD9FF1200D9CFE6FFBB
:103B2000E1CFD9FF020EE126DC0EDE6E050EDD6E62
:103B3000DECF14F0DDCF15F0F40E0D6E010E0E6E1B
:103B400014C008F015C009F057EC2BF004C014F0B5
:103B500005C015F01450151039E18C7AD9CFE9FF62
:103B6000DACFEAFFDC0EEE1802E1050EED1811E1E6
:103B7000E66A000EE66EE66AFA0EE66E540EE66E31
:103B8000010EE66E73EC18F0146E060EE15E145032
:103B90001DD0D9CFE9FFDACFEAFFB80EEE1802E167
:103BA0000B0EED1813E1E66A160EE66E550EE66E84
:103BB000ED0EE66E540EE66E010EE66E73EC18F036
:103BC000146E060EE15E1450DE6ADD6ADF2A010E15
:103BD00001E3DB2AFEEC0FF0FEEC0FF0FEEC0FF041
:103BE00081B40DD061EC0FF081B409D0E66A53ECDA
:103BF0000EF0E5528C9A020EE15C04E201D098D7F7
:103C0000E16AE552E16EE552E7CFD9FF12009392E7
:103C10009390FEEC0FF08A908A92FEEC0FF0938264
:103C200093809D96C00EC76E280EC66EC56A770E2D
:103C3000C86E9D969E961200A1B6FED7C750010B86
:103C400003E1C750040B01E0F9D79E961200040E61
:103C5000C71403E11F0EC51401E0F9D7C580C5B034
:103C6000FED79E961200E8DFC584C5B4FED79E96A7
:103C70001200D9CFE6FFE1CFD9FFFE0EDB50C96EAF
:103C8000DBDFE552E7CFD9FF1200D9CFE6FFE1CF66
:103C9000D9FFDDDFC8C0E6FFECDFE552FE0EDB50EA
:103CA0000001CB11E66EE5DFE552DDDFE552E7CF3F
:103CB000D9FF1200D9CFE6FFE1CFD9FFFE0EDBCF4F
:103CC000E7FF0001C751E712FE0EE7CFDBFFDB5035
:103CD000FB0BE66EDADFE552020EE66EAFEC2BF080
:103CE000E552FE0EDB500409E66ECFDFE552020E10
:103CF000E66EAFEC2BF0E552FE0EDB50FB0BE66EF2
:103D0000C4DFE552050EE66E81EC2BF0E552E5527C
:103D1000E7CFD9FF1200D9CFE6FFE1CFD9FF0001ED
:103D2000C76BFE0EDB50F00BE66EC4DFE552FE0EF5
:103D3000DB38F00BF00BE66EBDDFE552FE0EDB0468
:103D400004E0FE0EDB50020802E1FEEC0FF0FEEC98
:103D50000FF0E552E7CFD9FF1200D9CFE6FFE1CF50
:103D6000D9FFFD0EDB50020A01E008D0FE0EDB5049
:103D7000C00FFF0FE66ECFDFE55207D0FE0EDB501F
:103D8000800FFF0FE66EC7DFE552E552E7CFD9FFA0
:103D90001200D9CFE6FFE1CFD9FFE652DF6A00017A
:103DA000010EC76FDF50E76EFD0EDBCFF6FFFE0E94
:103DB000DBCFF7FFE750F626000EF7220800F5509C
:103DC00027E0DF50E76EFD0EDBCFF6FFFE0EDBCF08
:103DD000F7FFE750F626000EF7220800F550F00B2B
:103DE000E66E68DFE552DF50DF2AE76EFD0EDBCFBF
:103DF000F6FFFE0EDBCFF7FFE750F626000EF722A8
:103E00000800F538F00BF00BE66E54DFE552CAD728
:103E1000E552E552E7CFD9FF1200D9CFE6FFE1CF57
:103E2000D9FF020EE126200EDF6E010EDB6A0001D3
:103E3000C76F010EDB50E76EFD0EDBCFF6FFFE0E07
:103E4000DBCFF7FFE750F626000EF7220800F5500B
:103E50002BE0010EDB50E76EFD0EDBCFF6FFFE0E12
:103E6000DBCFF7FFE750F626000EF7220800F550EB
:103E7000F00BE66E1FDFE552010EDBCFF3FFDB2A0E
:103E8000F350E76EFD0EDBCFF6FFFE0EDBCFF7FF44
:103E9000E750F626000EF7220800F538F00BF00B7D
:103EA000E66E08DFE552C5D7100EF36E010EDBCFCC
:103EB000F4FFF350F45C0EE2F00EDF14E66EFADE6F
:103EC000E552DF38F00BF00BE66EF4DEE552010E42
:103ED000DB2AEAD7020EE15C02E2E16AE552E16E1A
:103EE000E552E7CFD9FF1200D9CFE6FFE1CFD9FFE6
:103EF000E652DF6A0001010EC76FDF50E76EFD0E6C
:103F0000DBCFE9FFFE0EDBCFEAFFE750E926000E2C
:103F1000EA22EF5025E0DF50E76EFD0EDBCFE9FF30
:103F2000FE0EDBCFEAFFE750E926000EEA22EF5053
:103F3000F00BE66EBFDEE552DF50DF2AE76EFD0EC6
:103F4000DBCFE9FFFE0EDBCFEAFFE750E926000EEC
:103F5000EA22EF38F00BF00BE66EACDEE552CDD77F
:103F6000E552E552E7CFD9FF1200D9CFE6FFE1CF06
:103F7000D9FFFE0EDBCFC8F0E66A87DEE55296EC8D
:103F80000FF0030EE66EC7DEE55296EC0FF0030E5F
:103F9000E66EC1DEE55296EC0FF0030EE66EBBDE78
:103FA000E55296EC0FF0020EE66EB5DEE55296ECA9
:103FB0000FF0280EE66EAFDEE55296EC0FF00C0E19
:103FC000E66EA9DEE55296EC0FF0010EE66EA3DE7A
:103FD000E55296EC0FF0060EE66E9DDEE55296EC8D
:0A3FE0000FF0E552E7CFD9FF120001
:063FEA000001240EC66F69
:103FF000C6C0ACFF900EAB6E080EB86EB06A680E0D
:10400000AF6E1200E66A960EE66E540EE66E000E75
:10401000E66EE66A010EE66E73EC18F0146E060E9C
:10402000E15E14508150040B1FE18150100B1CE124
:104030000001010EC46FE66AC4C0E6FF71EC0EF029
:10404000E552E552020EE66E920EE66E540EE66EF4
:10405000000EE66EE66A010EE66E73EC18F0146E62
:10406000060EE15E145002D081B6DCD71200E66A7B
:10407000890EE66E540EE66E000EE66EE66A010EDE
:10408000E66E73EC18F0146E060EE15E145081506B
:10409000040B1EE18150100B1BE10001C46BE66AAA
:1040A000C4C0E6FF71EC0EF0E552E552020EE66E7A
:1040B000860EE66E540EE66E000EE66EE66A010EA1
:1040C000E66E73EC18F0146E060EE15E145002D02A
:1040D00081B6DDD71200E66A7E0EE66E540EE66EFD
:1040E000000EE66EE66A010EE66E73EC18F0146ED2
:1040F000060EE15E14508150040B20E18150100B3C
:104100001DE10001010EC56F020EE66EC5C0E6FF9F
:1041100071EC0EF0E552E552020EE66E920EE66E7E
:10412000540EE66E000EE66EE66A010EE66E73EC65
:1041300018F0146E060EE15E145002D081B6DBD783
:104140001200E66A770EE66E540EE66E000EE66E1C
:10415000E66A010EE66E73EC18F0146E060EE15E70
:1041600014508150040B1FE18150100B1CE1000121
:10417000C56B020EE66EC5C0E6FF71EC0EF0E552AF
:10418000E552020EE66E860EE66E540EE66E000EE8
:10419000E66EE66A010EE66E73EC18F0146E060E1B
:1041A000E15E145002D081B6DCD71200D9CFE6FF11
:1041B000E1CFD9FF020EE126F40EDE6E010EDD6EB8
:1041C00081AC1AD081AC18D0D9CFE9FFDACFEAFFA1
:1041D000EE50ED1002E1010E11D08150040B05E10B
:1041E0008150100B02E1000E09D08DEC0EF0DF06BD
:1041F000010E01E2DB06E6D7000E00D0146E020EBF
:10420000E15C02E2E16AE552E16E1450E552E7CF6B
:10421000D9FF1200D9CFE6FFE1CFD9FF020EE12688
:10422000900EDE6E650EDD6E81BC39D0E66A630EDF
:10423000E66E540EE66E6F0EE66E540EE66E010EDE
:10424000E66E73EC18F0146E060EE15E145081BC3D
:1042500026D0D9CFE9FFDACFEAFFEE50ED1011E119
:10426000E66A5A0EE66E540EE66E000EE66EE66ADA
:10427000E66A73EC18F0146E060EE15E14503BEC27
:104280000DF08150040B04E18150100B01E10AD0C4
:104290008DEC0EF0DF06010E01E2DB06D8D700013F
:1042A000010ECC6F020EE15C02E2E16AE552E16EC2
:1042B000E552E7CFD9FF1200D9CFE6FFE1CFD9FF12
:1042C000030EE126B80EF36E010EF3CFDBFF0B0EEB
:1042D000F36E020EF3CFDBFF8150080B03E1815038
:1042E000100B1BE09EAA18D09E9AAE50DF6E530EA4
:1042F000DF5C02E1000E11D0CAEC0FF0010EDBCF43
:1043000014F0DB06020EDBCF15F001E2DB061450E1
:10431000151002E1010E01D0DFD7146E030EE15C2F
:1043200002E2E16AE552E16E1450E552E7CFD9FFAF
:104330001200D9CFE6FFE1CFD9FFE652AB989E9AA3
:10434000AB88AE50DF6EAE50DF6EE552E552E7CF80
:10435000D9FF1200D9CFE6FFE1CFD9FF030EE12646
:10436000E00EDE6E2E0EDD6E020EDB6A9E9AE66AAF
:10437000000EE66EE66A4F0EE66E540EE66EE66AD4
:1043800073EC18F0146E060EE15E14508150040BAD
:1043900004E18150100B01E149D29EAA0DD29E9AF0
:1043A000020EAECFDBFFDB50420A01E1CAD10E0A9A
:1043B00001E18CD11D0A01E15DD1150A01E133D182
:1043C000070A01E107D10D0A01E1CED0060A01E199
:1043D00095D01B0A65E0010A35E0130A2CE061EC78
:1043E0000FF0BF0EE96E000EEA6E040EE926000E15
:1043F000EA22EF500F0BE82AF36EF3500F0BF36E27
:10440000F46EF00EEF14F310EF6EF4508C8A010E80
:10441000E66EED0EE66E560EE66E000EE66EE66A8F
:10442000010EE66E73EC18F0146E060EE15E145089
:104430008C9A030EFBD10001C391C393C395C3971C
:10444000000EF4D161EC0FF0BF0EE96E000EEA6EC3
:10445000040EE926000EEA22EF500F0BE82AF36E55
:10446000F3500F0BF36EF46EF00EEF14F310EF6ECB
:10447000F4508C8A61EC0FF0020EE66E460EE66E8A
:10448000540EE66E000EE66EE66A010EE66E73EC02
:1044900018F0146E060EE15E14508C9A010EC6D10F
:1044A00061EC0FF0BF0EE96E000EEA6E040EE92615
:1044B000000EEA22EF500F0BE82AF36EF3500F0BB9
:1044C000F36EF46EF00EEF14F310EF6EF4508C8A6E
:1044D00061EC0FF0020EE66E380EE66E540EE66EDC
:1044E000000EE66EE66A010EE66E73EC18F0146ECE
:1044F000060EE15E14508C9A030E98D161EC0FF019
:10450000BF0EE96E000EEA6E040EE926000EEA22E6
:10451000EF500F0BE82AF36EF3500F0BF36EF46EAF
:10452000F00EEF14F310EF6EF450010EE66E850EF0
:10453000E66E570EE66E270EE66E540EE66E010E20
:10454000E66E73EC18F0146E060EE15E14508150A6
:10455000040B07E08150100B04E08C7AF7EC0EF0AE
:10456000F6D78C9A010E62D161EC0FF0BF0EE96EA6
:10457000000EEA6E040EE926000EEA22EF500F0B41
:10458000E82AF36EF3500F0BF36EF46EF00EEF1497
:10459000F310EF6EF450010EE66E850EE66E570EC8
:1045A000E66E190EE66E540EE66E010EE66E73ECC4
:1045B00018F0146E060EE15E14508150040B07E0F3
:1045C0008150100B04E08C7AF7EC0EF0F6D78C9A41
:1045D000010E2CD161EC0FF08C8A9DEC27F0010EBE
:1045E000E66E850EE66E570EE66E070EE66E540E0C
:1045F000E66E010EE66E73EC18F0146E060EE15EC8
:1046000014508150040B07E08150100B04E08C7AA9
:10461000F7EC0EF0F6D78C9A010EE66E8BEC1EF0DE
:10462000E552020E03D161EC0FF08C8A010EE66EAA
:10463000850EE66E570EE66EF90EE66E530EE66ECA
:10464000010EE66E73EC18F0146E060EE15E145067
:104650008150040B07E08150100B04E08C7AF7ECDA
:104660000EF0F6D78C9A010EE66E8BEC1EF0E5523A
:10467000020EDCD061EC0FF0BF0EE96E000EEA6EA8
:10468000040EE926000EEA22EF500F0BE82AF36E23
:10469000F3500F0BF36EF46EF00EEF14F310EF6E99
:1046A000F4508C8A010EE66EE70EE66E560EE66E4C
:1046B000000EE66EE66A010EE66E73EC18F0146EFC
:1046C000060EE15E14508C9A030EB0D061EC0FF030
:1046D000BF0EE96E000EEA6E040EE926000EEA2215
:1046E000EF500F0BE82AF36EF3500F0BF36EF46EDE
:1046F000F00EEF14F310EF6EF450010EE66E850E1F
:10470000E66E570EE66E190EE66E540EE66E010E5C
:10471000E66E73EC18F0146E060EE15E14508150D4
:10472000040B07E08150100B04E08C7AF7EC0EF0DC
:10473000F6D78C9A010EE66E8BEC1EF0E552010E58
:1047400075D061EC0FF0BF0EE96E000EEA6E040E3C
:10475000E926000EEA22EF500F0BE82AF36EF35021
:104760000F0BF36EF46EF00EEF14F310EF6EF450C7
:10477000010EE66E850EE66E570EE66EEA0EE66EEA
:10478000530EE66E010EE66E73EC18F0146E060E14
:10479000E15E14508150040B07E08150100B04E0DF
:1047A0008C7AF7EC0EF0F6D78C9A010EE66E8BEC55
:1047B0001EF0E552010E3AD0D9CFE9FFDACFEAFF79
:1047C000EE50ED102CE161EC0FF0BF0EE96E000E23
:1047D000EA6E040EE926000EEA22EF500F0BE82ADB
:1047E000F36EF3500F0BF36EF46EF00EEF14F31044
:1047F000EF6EF4508C8A010EE66EF90EE66E560EE0
:10480000E66E000EE66EE66A010EE66E73EC18F0D8
:10481000146E060EE15E14508C9A030E07D08DECD8
:104820000EF0DF06010E01E2DB06B0D5146E030EBA
:10483000E15C02E2E16AE552E16E1450E552E7CF35
:10484000D9FF1200D9CFE6FFE1CFD9FFACA2FED746
:10485000FD0EDBCF14F0FE0EDBCF15F0E80E0D6E73
:10486000030E0E6E14C008F015C009F08DEC28F090
:1048700008C014F009C015F0300E1424AD6EACA2BF
:10488000FED7FD0EDBCF14F0FE0EDBCF15F0E80EE9
:104890000D6E030E0E6E14C008F015C009F057EC33
:1048A0002BF004C014F005C015F0640E0D6E0E6AF6
:1048B00014C008F015C009F057EC2BF008C014F034
:1048C00009C015F0300E1424AD6EACA2FED7FD0E5B
:1048D000DBCF14F0FE0EDBCF15F0640E0D6E0E6A0A
:1048E00014C008F015C009F057EC2BF004C014F008
:1048F00005C015F00A0E0D6E0E6A14C008F015C042
:1049000009F057EC2BF008C014F009C015F0300E78
:104910001424AD6EACA2FED7FD0EDBCF14F0FE0E5C
:10492000DBCF15F00A0E0D6E0E6A14C008F015C02C
:1049300009F057EC2BF004C014F005C015F0300E50
:104940001424AD6EE552E7CFD9FF1200D9CFE6FFB0
:10495000E1CFD9FFACA2FED7FD0EDBCF14F0FE0EE7
:10496000DBCF15F0E80E0D6E030E0E6E14C008F0CE
:1049700015C009F057EC2BF004C014F005C015F079
:10498000640E0D6E0E6A14C008F015C009F057ECE5
:104990002BF008C014F009C015F0300E1424AD6ED1
:1049A000ACA2FED7FD0EDBCF14F0FE0EDBCF15F070
:1049B000640E0D6E0E6A14C008F015C009F057ECB5
:1049C0002BF004C014F005C015F00A0E0D6E0E6A2F
:1049D00014C008F015C009F057EC2BF008C014F013
:1049E00009C015F0300E1424AD6EACA2FED7FD0E3A
:1049F000DBCF14F0FE0EDBCF15F00A0E0D6E0E6A43
:104A000014C008F015C009F057EC2BF004C014F0E6
:104A100005C015F0300E1424AD6EACA2FED72C0EDE
:104A2000AD6EACA2FED7FB0EDBCF14F0FC0EDBCFDD
:104A300015F0E80E0D6E030E0E6E14C008F015C0D2
:104A400009F08DEC28F008C014F009C015F0300E04
:104A50001424AD6EACA2FED7FB0EDBCF14F0FC0E1F
:104A6000DBCF15F0E80E0D6E030E0E6E14C008F0CD
:104A700015C009F057EC2BF004C014F005C015F078
:104A8000640E0D6E0E6A14C008F015C009F057ECE4
:104A90002BF008C014F009C015F0300E1424AD6ED0
:104AA000ACA2FED7FB0EDBCF14F0FC0EDBCF15F073
:104AB000640E0D6E0E6A14C008F015C009F057ECB4
:104AC0002BF004C014F005C015F00A0E0D6E0E6A2E
:104AD00014C008F015C009F057EC2BF008C014F012
:104AE00009C015F0300E1424AD6EACA2FED7FB0E3B
:104AF000DBCF14F0FC0EDBCF15F00A0E0D6E0E6A44
:104B000014C008F015C009F057EC2BF004C014F0E5
:104B100005C015F0300E1424AD6EACA2FED70A0EFF
:104B2000AD6EE552E7CFD9FF1200948E949C240E0F
:104B3000AC6E900EAB6E080EB86EB06A680EAF6EBB
:104B40009F8AF26A9D9A1200D9CFE6FFE1CFD9FF82
:104B50009E9A9EAAFED7FD0EDBCFE9FFFE0EDBCFAD
:104B6000EAFFAECFEFFFFD0EDBCFE9FFFE0EDBCF9E
:104B7000EAFFEF5001E106D0FD0EDB2AFE0E01E355
:104B8000DB2AE7D7E552E7CFD9FF1200D9CFE6FFFE
:104B9000E1CFD9FFFD0EDBCFE9FFFE0EDBCFEAFF51
:104BA000EF5010E0ACA2FED7FD0EDBCFE9FFFE0E0A
:104BB000DBCFEAFFEF50AD6EFD0EDB2AFE0E01E308
:104BC000DB2AE8D7E552E7CFD9FF1200D9CFE6FFBD
:104BD000E1CFD9FFACA2FED7FE0EDB50AD6EE552A1
:104BE000E7CFD9FF1200D9CFE6FFE1CFD9FFFD0E05
:104BF000DBCFF6FFFE0EDBCFF7FF0800F55011E02C
:104C0000ACA2FED7FD0EDBCFF6FFFE0EDBCFF7FF2B
:104C10000800F550AD6EFD0EDB2AFE0E01E3DB2A27
:104C2000E6D7E552E7CFD9FF1200D9CFE6FFE1CFB3
:104C3000D9FF020EE126E50EDE6E530EDD6EDECFED
:104C4000F6FFDDCFF7FF0800F5500EE0ACA2FED76F
:104C5000DECFF6FFDDCFF7FF0800F550AD6EDF2A9F
:104C6000010E01E3DB2AEBD7020EE15C02E2E16A0E
:104C7000E552E16EE552E7CFD9FF1200D9CFE6FF4A
:104C8000E1CFD9FFACA2FED7FE0EDB50AD6EE552F0
:104C9000E7CFD9FF1200ACA2FED70A0EAD6E12000C
:104CA000DACFE4FFE652F092E552E5CFDAFF1100E9
:104CB000D8CFE4FFE0CFE4FFE46EDACFE4FFE652C2
:104CC000E552E5CFDAFFE550E5CFE0FFE5CFD8FFCD
:104CD0001000ADD9E6523AD80001C40503E1000145
:104CE000CC6B02D00AEC21F0010EE66E870EE66E68
:104CF000530EE66E930EE66E530EA4D989D923D9CE
:104D0000E66A000EE66EE66A660EE66E530E9AD905
:104D100053D83CD907EC19F0899607D996EC0FF0D7
:104D200086D8898661EC0FF058D8DF6EDFCFE6FFBA
:104D300064D8E552899661EC0FF0CED80001CC051D
:104D4000E8E1E66A3EEC26F0E552E3D7959A8C9AC4
:104D50009690929892968D90899889969480948254
:104D6000939A938C938E8A9A9386938893846D9664
:104D70006F8607EC1EF032EC10F03FD9010EE66EA4
:104D8000540EE66E530EE66E5B0EE66E530E5AD967
:104D90003AD9E66A5BEC0EF0E5520001C46F020EF0
:104DA000E66E5BEC0EF0E5520001C56FBCEC16F050
:104DB000F5EC1FF0F28E120081A80CD081B6FCD762
:104DC000E66A3F0EE66E530EE66E4D0EE66E530E2D
:104DD00039D9F2D781A8FED712000001CC5103E0E7
:104DE0000001C55101E0030C99EC21F0140EE66EB0
:104DF0003EEC26F0E552AAEF21F019D90001A82BCC
:104E0000000EA923AA23AB23FE0EDB5007E1AC2B37
:104E1000000EAD23AE23AF2388D806D0B02B000EF2
:104E2000B123B223B32379D8F7EC0EF0DBD0FFD84F
:104E3000030EE126DE6ADD6A050EF36E020EF3CF85
:104E4000DBFF8D8082B241D0DF2A010E01E3DB2A35
:104E5000CDD8880EEE18F6E1130EED18F3E1020E30
:104E6000DBCFF3FFDB06F350000918E08D90DE6A1C
:104E7000DD6A82B025D0DF2A010E01E3DB2AB6D835
:104E8000700EEE18F6E1170EED18F3E1E66A2D0E3E
:104E9000E66E530EC7D83BEC0DF0EBD7E66A1C0E5E
:104EA000E66E530EBFD849D820EC0DF061EC0FF040
:104EB000A4D807EC19F0050EF36E020EF3CFDBFF5A
:104EC00089868D80DE6ADD6ABDD7030EE15C02E271
:104ED000E16AE552E16E86D07FD88D9082B016D01F
:104EE000DF2A010E01E3DB2A81D8100EEE18F6E16D
:104EF000270EED18F3E1F092F088050EE66E2D0E08
:104F0000E66E530E99D83BEC0DF0E8D7020EE15C4B
:104F100002E2E16AE552E16E65D05ED88988E15C23
:104F200002E2E16AE552E16E5DD056D88998E15C13
:104F300002E2E16AE552E16E55D08D90899889963A
:104F40008C9A03EF28F073D8E65299EC21F0815047
:104F5000100B06E18150080B03E1E5EC0DF058D889
:104F60009EAA0FD0AE50DF6E470EDF5C0DE0670EDD
:104F7000DF5C0AE0480EDF5C03E0680EDF5C01E105
:104F800047D896EC0FF0E3D7E5522CD082B817D073
:104F90000001B45112E1F092F088CFDF080EE66E06
:104FA00053EC0EF0E5528EEC1DF08C9A2CD881A4B7
:104FB000FED70001B46BFDEF27F0B40712008C9A06
:104FC0000001B46B1200010EE66E73EC18F0146E63
:104FD000060EE15E145012002AD8020EE126DE6AA7
:104FE000DD6A1200E552E7CFD9FF1200CAEC0FF0DC
:104FF000D9CFE9FFDACFEAFF12004E0EE66EB5EC2C
:105000001FF0E5521200E66A53EC0EF0E552120072
:10501000E66A720EE66E530EE66E7B0EE66E530E79
:1050200022EF28F009D8F092F08895EF27F0D9CF39
:10503000E6FFE1CFD9FF1200E66E000EE66EE66AEB
:0A504000E3EF27F0E66EE3EF27F040
:06504A00019E08D0019E4A
:1050500009AE05D0086C091EE86A0922018E09C054
:1050600003F008C002F0136A126A8E0E046E056A1D
:1050700024EF29F0016A60EC29F078EC29F001B600
:1050800008EF29F001A205D001BA08EF29F00FEFCF
:1050900029F001BA1BEF29F001A005D001B808EFF3
:1050A00029F01BEF29F001B80FEF29F0056A7F0EF8
:1050B0000A24046EE86A05220F50045EE86A055A65
:1050C0001A0E106E0A6A126A136A026A036A0C5098
:1050D000075E0D50085A0E50095A000E0A5A09E789
:1050E0000C5007260D5008220E500922000E0A22ED
:1050F00001D0128AD8900736083609360A36D89079
:105100001236133602360336102EE1D70950081036
:105110000710D8A4128A24EF29F0006A0EAE96EF89
:1051200028F00D6C0E1EE86A0E22001E09AE9EEFDE
:1051300028F0086C091EE86A0922001E57EC2BF0C3
:1051400009BEAEEF28F000AE000C086C091EE86A3C
:105150000922046C051EE86A0522000C00BEA5EFBA
:1051600028F00188FF0C08C012F008500D02F4CF9F
:1051700007F0F3CF06F009500E02F4CF09F0F3CF99
:1051800008F00D02F3500726F4500822E86A0922BD
:1051900012500E02F3500726F4500822E86A092242
:1051A000000C016A60EC29F001B6DBEF28F001A2E7
:1051B0000FD001B407D07F0E096EFF0E086E076E88
:1051C000066E25D0800E096E01D0096A000EF6D752
:1051D00001B0FBD7066A9F0E0A60EBD77E0E0A6409
:1051E000F4D79E0E0A5C07E0D890093208320732E5
:1051F00006320A2AF6D701A40AD0066C071E081E3A
:10520000091EE86A07220822092209AEDED7120029
:105210007F0E0A6EFF0E096E086E076E12007F0E7B
:1052200001BEFF0E0A6E02D07F0E0A6E800E096E5E
:10523000086A076AF3D701AE04D0800E0A6E096AC5
:10524000F7D70A6A096AF4D7035002101310121034
:10525000F8E005BEF0D703BE0CD004500510EBE01B
:10526000D89012361336023603360406D8A0050647
:10527000F2D70550D4E10428D2E012AE11D07F0E4F
:10528000121402E113A00CD0132AE86A02220322AE
:1052900007E3D880033202321332042A0428BFE025
:1052A0000450C9E013C007F002C008F00334096ECF
:1052B00004300A6E09320A9E01BE0A8E0EEF29F0F2
:1052C00009360A3602E30184017E06E101800A6A9A
:1052D000096A086A076A12000A2803E0D8800932BE
:1052E0001200D890093202E10182120001861200F8
:1052F0000E360F3602E3018C017E06E101880F6A4B
:105300000E6A0D6A0C6A12000F2803E0D8800E3274
:0C5310001200D8900E32EAE1018A12006F
:04531C00505553484D
:1053200045522046574420535455434B0050555343
:10533000484552204241434B20535455434B005261
:10534000454C45415345205354415254005041551A
:10535000534544004D4F4C42494F0057454C434F35
:105360004D4520544F005052455353205354415201
:105370005400544F205354415254005345545550F7
:1053800020424154434800514120534954452D493E
:10539000494900444556454C4F5045442042590028
:1053A0000A452E564D2046542043570A000A532ED4
:1053B000564D204654204143570A000A452E564D6B
:1053C0002043570A000A452E564D204143570A00F4
:1053D0000A532E564D2043570A000A532E564D208D
:1053E0004143570A002D2C2D0A004C4F4747494E88
:1053F00047204552524F522E004455504C4943418C
:1054000054452051522E00524550454154454420A8
:1054100054455354494E472E004C454E475448205E
:105420004552524F522E005343414E4E4552204852
:1054300057204552524F52005343414E4E45522041
:105440004552524F520052454A454354454400523A
:10545000454144494E472051520053424320457232
:105460002D3100504C454153452057414954004C83
:105470004F4144494E47004F4E2051523F004F4646
:10548000462051523F004F4E004F4E204441544160
:105490003F004F4646004F464620444154413F009E
:1054A0004D454E55004558495400425420504149FD
:1054B00052004D4543482054535400455200542D4A
:1054C0004F5554004F4B0050414952004E4F54200D
:1054D0005245515549524544004D45434820544595
:1054E0005354004641494C0050494E3F0046494CF8
:1054F0004C20535441434B202600535441434B20EE
:10550000454D505459002000204E4F2043415254E5
:105510005249444745005052455353205354415239
:02552000540035
:0E552200000EF66E080EF76E000EF86E000119
:105530000900F550BA6F0900F550BB6F03E1BA6777
:1055400001D03DD00900F550B56F0900F550B66F98
:105550000900F550B76F09000900F550E96E090020
:10556000F550EA6E090009000900F550B86F09000E
:10557000F550B96F09000900F6CFBCF0F7CFBDF0C8
:10558000F8CFBEF0B5C0F6FFB6C0F7FFB7C0F8FF62
:105590000001B85302E1B95307E00900F550EE6E7F
:1055A000B807F8E2B907F9D7BCC0F6FFBDC0F7FFEE
:1055B000BEC0F8FF0001BA07000EBB5BBFD71200E8
:1055C00006500B02F3CF02F0F4CF03F00C02F350BD
:1055D0000326000EF420046E06500D02F35004263C
:1055E000000EF420056E06500E02F35005260750FB
:1055F0000B02F3500326F4500422000E052207503C
:105600000C02F3500426F450052207500D02F3500B
:10561000052608500B02F3500426F45005220850CA
:105620000C02F350052609500B02F3500526120018
:10563000056A046A036A026A200EE76ED89006368D
:1056400007360836093602360336043605360B505F
:10565000025C0C5003580D5004580E50055809E3D5
:105660000B50025E0C50035A0D50045A0E50055A4E
:08567000062AE72EE4D7120020
:08567800532E564D204357202C
:105680004641494C00532E564D2041435720464138
:10569000494C00452E564D204357204641494C0069
:0E56A000452E564D20414357204641494C00AF
:0256AE00056A8B
:1056B000046A100EE76ED8900836093604360536AF
:1056C0000D50045C0E50055805E30D50045E0E505D
:0A56D000055A082AE72EF0D7120051
:0656DA0052454144455217
:1056E000204552524F52004E4F20515200515220ED
:1056F0004642204552524F5200515220542E4F558F
:02570000540053
:0E570200FF0EE350206E480E01D04C0EE76EF5
:10571000E72EFED7E76AE72EFED7202EF7D7000048
:02572000120075
:0E572200000EF36E00EE00F0080E01D812002B
:10573000EA6002D0EE6AFCD7F350E9601200EE6A2C
:02574000FCD794
:0E57420013EE00F023EE00F0F86A019C91ECEB
:0E5750002AF0C9EC2BF069EC26F0FBD7120012
:02575E00FF0E3C
:10576000E350E84E1200000000D000D000D0E82E38
:04577000FAD7120052
:0C5774004F4B2020202020203E20202031
:055780002020203C0088
:0B5785005052455353205354415254DE
:015790000018
:01579100080F
:02579200120003
:02579400000013
:015796000012
:0957970000000000000000000009
:0457A0000000000005
:0C57A400000000000000532E564D20466F
:1057B0005420414357204641494C00532E564D201A
:1057C0004654204357204641494C00452E564D2013
:1057D000465420414357204641494C00452E564DE2
:0C57E000204654204357204641494C000D
:020000040030CA
:0100080000F7
:01000900C036
:01000A000FE6
:01000B00E014
:01000C000FE4
:01000D0040B2
:0200000400F00A
:03000000001400E9
:00000001FF
