:020000040000FA
:06000800A1EF26F012003A
:06001800A9EF26F0120022
:100800000500E85800006000000051000000D758C3
:100810000000B100000011000000D6580000CF0019
:10082000000001000000D5580000CE0000000100CB
:0E0830000000D3580000CC00000002000000C1
:02083E008D82A9
:1008400077EF05F08D9277EF05F0D9CFE6FFE1CF96
:10085000D9FF72EC1EF0720EE66E84EC1EF0E552CB
:10086000FE0EDBCFE6FF84EC1EF0E5527EEC1EF0C0
:10087000E552E7CFD9FF1200D9CFE6FFE1CFD9FF8C
:10088000E652FE0EDB50A96E3F0EA616A680A6B05D
:10089000FED7A850DF6EDF5000D0E552E552E7CF1B
:1008A000D9FF1200D9CFE6FFE1CFD9FFFD0EDB5013
:1008B000A96EFE0EDB50A86E3F0EA616A684F29E11
:1008C000550EA76EAA0EA76EA682F28EA6BAFED706
:1008D0000ED9A694E552E7CFD9FF1200D9CFE6FF93
:1008E000E1CFD9FF040EE126020EDB6A030EDB6ABC
:1008F000020EDBCF14F0030EDBCF15F01E0E145CDE
:10090000000E155816E2DE6ADD6ADECF14F0DDCF88
:1009100015F0490E145C000E155805E2DF2A010E91
:1009200001E3DB2AF2D7020EDB2A030E01E3DB2A06
:10093000DFD7040EE15C02E2E16AE552E16EE552C6
:10094000E7CFD9FF1200D9CFE6FFE1CFD9FF040EE0
:10095000E126020EDB6A030EDB6A020EDBCF14F027
:10096000030EDBCF15F0500E145C000E155816E286
:10097000DE6ADD6ADECF14F0DDCF15F0FC0E145C0C
:10098000260E155805E2DF2A010E01E3DB2AF2D715
:10099000020EDB2A030E01E3DB2ADFD7040EE15C43
:1009A00002E2E16AE552E16EE552E7CFD9FF1200BB
:1009B000D9CFE6FFE1CFD9FF040EE126020EDB6AB4
:1009C000030EDB6A020EDBCF14F0030EDBCF15F053
:1009D0001C0E145C000E155816E2DE6ADD6ADECFCE
:1009E00014F0DDCF15F0C00E145C260E155805E28C
:1009F000DF2A010E01E3DB2AF2D7020EDB2A030E07
:100A000001E3DB2ADFD7040EE15C02E2E16AE55292
:100A1000E16EE552E7CFD9FF1200D9CFE6FFE1CF73
:100A2000D9FF040EE126020EDB6A030EDB6A020E1A
:100A3000DBCF14F0030EDBCF15F00E0E145C000EAE
:100A4000155816E2DE6ADD6ADECF14F0DDCF15F050
:100A5000C00E145C260E155805E2DF2A010E01E3D4
:100A6000DB2AF2D7020EDB2A030E01E3DB2ADFD7F3
:100A7000040EE15C02E2E16AE552E16EE552E7CF85
:100A8000D9FF1200D9CFE6FFE1CFD9FF040EE1264E
:100A9000020EDB6A030EDB6A020EDBCF14F0030EDC
:100AA000DBCF15F0060E145C000E155816E2DE6A58
:100AB000DD6ADECF14F0DDCF15F0310E145C240EAC
:100AC000155805E2DF2A010E01E3DB2AF2D7020EF8
:100AD000DB2A030E01E3DB2ADFD7040EE15C02E22E
:100AE000E16AE552E16EE552E7CFD9FF1200D9CFB6
:100AF000E6FFE1CFD9FF040EE126020EDB6A030E0A
:100B0000DB6A020EDBCF14F0030EDBCF15F0145CB2
:100B1000000E155816E2DE6ADD6ADECF14F0DDCF76
:100B200015F0280E145C230E155805E2DF2A010E7D
:100B300001E3DB2AF2D7020EDB2A030E01E3DB2AF4
:100B4000E0D7040EE15C02E2E16AE552E16EE552B3
:100B5000E7CFD9FF1200D9CFE6FFE1CFD9FF040ECE
:100B6000E126020EDB6A030EDB6A020EDBCF14F015
:100B7000030EDBCF15F0145C000E155816E2DE6A8A
:100B8000DD6ADECF14F0DDCF15F0410E145C000EEF
:100B9000155805E2DF2A010E01E3DB2AF2D7020E27
:100BA000DB2A030E01E3DB2AE0D7040EE15C02E25C
:100BB000E16AE552E16EE552E7CFD9FF1200D9CFE5
:100BC000E6FFE1CFD9FF040EE126020EDB6A030E39
:100BD000DB6A020EDBCF14F0030EDBCF15F0145CE2
:100BE000000E155816E2DE6ADD6ADECF14F0DDCFA6
:100BF00015F0B40E145C000E155805E2DF2A010E44
:100C000001E3DB2AF2D7020EDB2A030E01E3DB2A23
:100C1000E0D7040EE15C02E2E16AE552E16EE552E2
:100C2000E7CFD9FF12000B0EC16E350EC06EC26A3F
:100C30001200D9CFE6FFE1CFD9FF100EE126DE6A20
:100C4000DD6A020EDB6A030EDB6A040EDB6A050E48
:100C5000DB6A060EDB6A070EDB6A080EDB6A090E2A
:100C6000DB6A140EF36E0A0EF3CFDBFF0B0EDB6AAA
:100C70000C0EDB6A0D0EDB6A0E0EDB6A0F0EDB6AF2
:100C8000FE0EDB50040A15E0070A10E0010A0BE033
:100C9000030A06E0010A01E00FD0010EC26E0CD07B
:100CA000050EC26E09D0090EC26E06D00D0EC26EC0
:100CB00003D0110EC26E00D0060EDBCF14F0070E6B
:100CC000DBCF15F00A0EDBCF16F00B0EDBCF17F0E3
:100CD0001650145C175015586FE2060EDB2A070EEB
:100CE00001E3DB2AC2820000C2B2FED7C450DE6E2E
:100CF000DD6AC350E66ED950020FE96EDACFEAFF23
:100D0000E552E750EE6EED6ADECF14F0DDCF15F060
:100D1000D89014361536D8901436153614C0DEFF28
:100D200015C0DDFF020EDBCF14F0030EDBCF15F094
:100D3000060ED89015321432E804FBE1020E14C0FE
:100D4000DBFF030E15C0DBFF020EDBCF16F0030E38
:100D5000DBCF17F0DE501610146EDD501710156E35
:100D6000040E14C0DBFF050E15C0DBFF040EDBCF45
:100D700014F0050EDBCF15F0166A176AD9500C0F68
:100D8000E96EDACFEAFFEE501426EE501522EE504F
:100D90001622EE5017220C0E14C0DBFF0D0E15C0EC
:100DA000DBFF0E0E16C0DBFF0F0E17C0DBFF0000CF
:100DB00000000000000080D70A0EDBCF14F00B0EFD
:100DC000DBCF15F0166A176A14C00BF015C00CF0D3
:100DD00016C00DF017C00EF00C0EDBCF06F00D0E96
:100DE000DBCF07F00E0EDBCF08F00F0EDBCF09F0E4
:100DF000C7EC2BF0080E06C0DBFF090E07C0DBFFB7
:100E0000080EDBCF14F0090EDBCF15F014C0F3FF92
:100E100015C0F4FF00D0100EE15C02E2E16AE55279
:100E2000E16EE552E7CFD9FF1200D9CFE6FFE1CF5F
:100E3000D9FF040EE1260001CF0508E1D60EE66ECB
:100E4000550EE66E44EC26F0E552E55295909592EB
:100E50008C808C924CDE4BDEDE6ADD6ADECF14F0D5
:100E6000DDCF15F02C0E145C010E15582EE23FDE7E
:100E7000E66ADFDEE552020EF3CFDBFF030EF4CFAE
:100E8000DBFF0001CF0510E1020EDBCFE6FF030E12
:100E9000DBCFE6FFDECFE6FFDDCFE6FFF7EC24F0A9
:100EA000E552E552E552E552D950020FE96EDACF2C
:100EB000EAFF5C0ED880EE54030EED5401E205D03B
:100EC000DF2A010E01E3DB2AC9D78C9066EC26F0FD
:100ED000D9CFE9FFDACFEAFF2C0EEE1802E1010EBE
:100EE000ED1839E18C8AE66AE30EE66E570EE66E7F
:100EF000000EE66EE66AE66ABFEC18F0146E060EA7
:100F0000E15E14509CEC26F0E30EE66E570EE66EA2
:100F100044EC26F0E552E55216DD15DD14DD8C9A21
:100F2000C20EE96E000EEA6EEF50F00BE842E842A6
:100F3000E842E842E82AF36EF3500F0BF36EF46ECA
:100F4000F346F346F346F3460F0EEF14F310EF6E3D
:100F5000F450010E07D00001C299C29BC29DC29FEE
:100F6000000E00D0146E040EE15C02E2E16AE5526C
:100F7000E16E1450E552E7CFD9FF1200D9CFE6FF5A
:100F8000E1CFD9FF040EE1260001CF0508E1CC0E28
:100F9000E66E550EE66E44EC26F0E552E55295906D
:100FA00095928C908C82A3DDA2DDDE6ADD6ADECFB5
:100FB00014F0DDCF15F02C0E145C010E15582EE246
:100FC00096DDE66A36DEE552020EF3CFDBFF030E56
:100FD000F4CFDBFF0001CF0510E1020EDBCFE6FF0F
:100FE000030EDBCFE6FFDECFE6FFDDCFE6FFF7EC5B
:100FF00024F0E552E552E552E552020EDBCF14F043
:10100000030EDBCF15F0510E145C020E155801E2F1
:1010100005D0DF2A010E01E3DB2AC9D78C9266ECEA
:1010200026F0D9CFE9FFDACFEAFF2C0EEE1802E165
:10103000010EED1831E18C8AE66AD60EE66E570E87
:10104000E66E000EE66EE66AE66ABFEC18F0146E15
:10105000060EE15E14509CEC26F0D60EE66E570E9E
:10106000E66E44EC26F0E552E5526DDC6CDC6BDCA0
:101070008C9AC20EE96E000EEA6EEF500F0BE82A52
:10108000F36EF3500F0BF36EF46EF00EEF14F310DB
:10109000EF6EF450010E07D00001C291C293C295C9
:1010A000C297000E00D0146E040EE15C02E2E16A09
:1010B000E552E16E1450E552E7CFD9FF1200D9CFC7
:1010C000E6FFE1CFD9FF040EE1260001CF0508E1DC
:1010D000C10EE66E550EE66E44EC26F0E552E55282
:1010E000959495968C848C9602DD01DDDE6ADD6A2E
:1010F000DECF14F0DDCF15F02C0E145C010E155868
:101100002FE2F5DC010EE66E94DDE552020EF3CF20
:10111000DBFF030EF4CFDBFF0001CF0510E1020E71
:10112000DBCFE6FF030EDBCFE6FFDECFE6FFDDCF52
:10113000E6FFF7EC24F0E552E552E552E552D950CE
:10114000020FE96EDACFEAFF5C0ED880EE54030E90
:10115000ED5401E205D0DF2A010E01E3DB2AC8D7F6
:101160008C9466EC26F0D9CFE9FFDACFEAFF2C0E9B
:10117000EE1802E1010EED183DE18C8AE66AFE0EE2
:10118000E66E570EE66E000EE66EE66AE66ABFECA5
:1011900018F0146E060EE15E14509CEC26F0FE0E64
:1011A000E66E570EE66E44EC26F0E552E552A3ECEF
:1011B00004F0A3EC04F0A3EC04F08C9AC20EE96EE8
:1011C000000EEA6EEE52EF50F00BE842E842E842C1
:1011D000E842E82AF36EF3500F0BF36EF46EF34619
:1011E000F346F346F3460F0EEF14F310EF6EF45090
:1011F000010E07D00001C399C39BC39DC39F000E7E
:1012000000D0146E040EE15C02E2E16AE552E16E88
:101210001450E552E7CFD9FF1200D9CFE6FFE1CF56
:10122000D9FF040EE1260001CF0508E1B70EE66EF6
:10123000550EE66E44EC26F0E552E55295949596EF
:101240008C948C8654DC53DCDE6ADD6ADECF14F0CD
:10125000DDCF15F02C0E145C010E15582FE247DC83
:10126000010EE66EE6DCE552020EF3CFDBFF030E65
:10127000F4CFDBFF0001CF0510E1020EDBCFE6FF6C
:10128000030EDBCFE6FFDECFE6FFDDCFE6FFF7ECB8
:1012900024F0E552E552E552E552020EDBCF14F0A0
:1012A000030EDBCF15F0510E145C020E155801E24F
:1012B00005D0DF2A010E01E3DB2AC8D78C9666EC45
:1012C00026F0D9CFE9FFDACFEAFF2C0EEE1802E1C3
:1012D000010EED1835E18C8AE66AF10EE66E570EC6
:1012E000E66E000EE66EE66AE66ABFEC18F0146E73
:1012F000060EE15E14509CEC26F0F10EE66E570EE1
:10130000E66E44EC26F0E552E552A3EC04F0A3ECC3
:1013100004F0A3EC04F08C9AC20EE96E000EEA6EA3
:10132000EE52EF500F0BE82AF36EF3500F0BF36EF3
:10133000F46EF00EEF14F310EF6EF450010E07D0C0
:101340000001C391C393C395C397000E00D0146EE0
:10135000040EE15C02E2E16AE552E16E1450E552EE
:10136000E7CFD9FF1200D9CFE6FFE1CFD9FF040EB6
:10137000E126959095928C808C9277EC05F077EC35
:1013800005F0DE6ADD6ADECF14F0DDCF15F0370E32
:10139000145C000E155807E277EC05F0DF2A010E09
:1013A00001E3DB2AF0D78C900000040EE15C02E23E
:1013B000E16AE552E16EE552E7CFD9FF1200D9CFDD
:1013C000E6FFE1CFD9FF040EE126959095928C902F
:1013D0008C8277EC05F077EC05F0DE6ADD6ADECF13
:1013E00014F0DDCF15F02D0E145C000E155807E239
:1013F00077EC05F0DF2A010E01E3DB2AF0D78C92AF
:101400000000040EE15C02E2E16AE552E16EE552A1
:10141000E7CFD9FF1200D9CFE6FFE1CFD9FF0A0EFF
:10142000E1260001CF0508E1A90EE66E550EE66E35
:1014300044EC26F0E552E552959095928C928C8082
:1014400077EC05F077EC05F0DE6ADD6ADECF14F0AC
:10145000DDCF15F0C80E145C000E155830E277ECA5
:1014600005F0E66A19EC06F0E552020EF3CFDBFF59
:10147000030EF4CFDBFF0001CF0510E1020EDBCF3E
:10148000E6FF030EDBCFE6FFDECFE6FFDDCFE6FFB4
:10149000F7EC24F0E552E552E552E552D950020F3F
:1014A000E96EDACFEAFF5C0ED880EE54030EED54FD
:1014B00001E205D0DF2A010E01E3DB2AC7D78C90B9
:1014C00066EC26F0DECF14F0DDCF15F0500E145C84
:1014D000000E15580BE3D9CFE9FFDACFEAFF800EF3
:1014E000D880EE54000EED5401E3A6D08C8A540E41
:1014F000F36E040EF3CFDBFF3A0EF36E050EF3CF5F
:10150000DBFFDECF14F0DDCF15F0640E0D6E0E6A3A
:1015100014C008F015C009F006EC2CF008C014F057
:1015200009C015F0300E1426000E1522060E14C048
:10153000DBFFDECF14F0DDCF15F00A0E0D6E0E6A64
:1015400014C008F015C009F006EC2CF008C014F027
:1015500009C015F00A0E0D6E0E6A14C008F015C011
:1015600009F006EC2CF004C014F005C015F0300EA4
:101570001426000E1522070E14C0DBFFDECF14F078
:10158000DDCF15F00A0E0D6E0E6A14C008F015C0FE
:1015900009F006EC2CF004C014F005C015F0300E74
:1015A0001426000E1522080E14C0DBFF090EDB6A9C
:1015B000E66A660EE66E000EE66ED950040FE66E21
:1015C000000EDA20E66E010EE66E09EC19F0146EDC
:1015D000060EE15E14500001CF050AE19CEC26F0F6
:1015E000660EE66E000EE66E17EC26F0E552E5524A
:1015F000A3EC04F0A3EC04F0A3EC04F08C9AC20E6C
:10160000E96E000EEA6EEE52EE52EF50F00BE84239
:10161000E842E842E842E82AF36EF3500F0BF36E1B
:10162000F46EF346F346F346F3460F0EEF14F31051
:10163000EF6EF450020E07D00001C499C49BC49D04
:10164000C49F000E00D0146E0A0EE15C02E2E16A53
:10165000E552E16E1450E552E7CFD9FF1200D9CF21
:10166000E6FFE1CFD9FF0A0EE1260001CF0508E130
:101670009C0EE66E550EE66E44EC26F0E552E55201
:10168000959495968C948C8677EC05F077EC05F024
:10169000DE6ADD6ADECF14F0DDCF15F0C80E145C13
:1016A000000E155831E277EC05F0010EE66E19ECEC
:1016B00006F0E552020EF3CFDBFF030EF4CFDBFFA3
:1016C0000001CF0510E1020EDBCFE6FF030EDBCFFA
:1016D000E6FFDECFE6FFDDCFE6FFF7EC24F0E552D4
:1016E000E552E552E552020EDBCF14F0030EDBCFDC
:1016F00015F0510E145C020E155801E205D0DF2AD8
:10170000010E01E3DB2AC6D78C9666EC26F0DECF0D
:1017100014F0DDCF15F0500E145C000E15580BE3DD
:10172000D9CFE9FFDACFEAFF800ED880EE54000E61
:10173000ED5401E39FD08C8A540EF36E040EF3CF68
:10174000DBFF3A0EF36E050EF3CFDBFFDECF14F0B6
:10175000DDCF15F0640E0D6E0E6A14C008F015C0D2
:1017600009F006EC2CF008C014F009C015F0300E9A
:101770001426000E1522060E14C0DBFFDECF14F077
:10178000DDCF15F00A0E0D6E0E6A14C008F015C0FC
:1017900009F006EC2CF008C014F009C015F00A0E90
:1017A0000D6E0E6A14C008F015C009F006EC2CF09E
:1017B00004C014F005C015F0300E1426000E1522DA
:1017C000070E14C0DBFFDECF14F0DDCF15F00A0EDC
:1017D0000D6E0E6A14C008F015C009F006EC2CF06E
:1017E00004C014F005C015F0300E1426000E1522AA
:1017F000080E14C0DBFF090EDB6AE66A980EE66E7F
:10180000000EE66ED950040FE66E000EDA20E66E8A
:10181000010EE66E09EC19F0146E060EE15E14502E
:101820000001CF050AE19CEC26F0980EE66E000E52
:10183000E66E17EC26F0E552E552A3EC04F0A3ECBB
:1018400004F0A3EC04F08C9AC20EE96E000EEA6E6E
:10185000EE52EE52EE52EF500F0BE82AF36EF350B9
:101860000F0BF36EF46EF00EEF14F310EF6EF450F6
:10187000020E07D00001C591C593C595C597000E0E
:1018800000D0146E0A0EE15C02E2E16AE552E16EFC
:101890001450E552E7CFD9FF1200D9CFE6FFE1CFD0
:1018A000D9FF020EE126DE6ADD6ADECF14F0DDCF5D
:1018B00015F08A0E145C020E15580BE28C8EDFECCC
:1018C00005F08C9EDFEC05F0DF2A010E01E3DB2A38
:1018D000ECD7020EE15C02E2E16AE552E16EE5520C
:1018E000E7CFD9FF1200D9CFE6FFE1CFD9FF020E33
:1018F000E126DE6ADD6ADECF14F0DDCF15F0450E9D
:10190000145C010E15580FE28C8EDFEC05F0DFEC55
:1019100005F08C9EDFEC05F0DFEC05F0DF2A010E10
:1019200001E3DB2AE8D7020EE15C02E2E16AE5525C
:10193000E16EE552E7CFD9FF1200F198F092F08EF8
:10194000F088F28E1200D9CFE6FFE1CFD9FF2A0E40
:10195000E126D950140FE96EDACFEAFF500EEE6E91
:101960003D0EEE6E200EEE6EEE6EEE6EEE6EEE6ED6
:10197000EE6EEE6EEE6E540EEE6E3D0EEE6E200EC0
:10198000EE6EEE6EEE6E730EEE6EEE6AEE6AFD0EAB
:10199000DBCF62F0FE0EDBCF63F062C008F063C005
:1019A00009F01EEC29F00C0E07C0DBFF0D0E08C07D
:1019B000DBFF0E0E09C0DBFF0F0E0AC0DBFF0C0EB3
:1019C000DBCF14F00D0EDBCF15F00E0EDBCF16F0D3
:1019D0000F0EDBCF17F0AA0E0C6E820E0D6E510E9D
:1019E0000E6E3E0E0F6E14C007F015C008F016C044
:1019F00009F017C00AF033EC29F0CAEC29F0260EE2
:101A000006C0DBFF270E07C0DBFF280E08C0DBFF88
:101A1000290E09C0DBFFE80E146E030E156E260EAC
:101A2000DBCF08F0270EDBCF09F014C00DF015C096
:101A30000EF086EC29F0100E08C0DBFF260EDBCF7F
:101A400006F0270EDBCF07F0280EDBCF08F0290EBB
:101A5000DBCF09F0E80E0B6E030E0C6E0D6A0E6AFA
:101A6000C7EC2BF002C006F003C007F004C008F07A
:101A700005C009F0640E0B6E0C6A0D6A0E6AC7ECA5
:101A80002BF0110E06C0DBFF260EDBCF06F0270E73
:101A9000DBCF07F0280EDBCF08F0290EDBCF09F0F3
:101AA000640E0B6E0C6A0D6A0E6AC7EC2BF002C056
:101AB00006F003C007F004C008F005C009F00A0EE4
:101AC0000B6E0C6A0D6A0E6AC7EC2BF0120E06C084
:101AD000DBFF260EDBCF06F0270EDBCF07F0280E4C
:101AE000DBCF08F0290EDBCF09F00A0E0B6E0C6A73
:101AF0000D6A0E6AC7EC2BF0130E02C0DBFF2C0E32
:101B0000F36E030EF3CFDBFF100EDB50300FE76EEA
:101B1000160EE7CFDBFFDB50E76E040EE7CFDBFFEF
:101B20002E0EF36E170EF3CFDBFF2E0EF36E050EA7
:101B3000F3CFDBFF110EDB50300FE76E180EE7CF4F
:101B4000DBFFDB50E76E060EE7CFDBFF120EDB504C
:101B5000300FE76E190EE7CFDBFFDB50E76E070EA5
:101B6000E7CFDBFF130EDB50300FE76E1A0EE7CF27
:101B7000DBFFDB50E76E080EE7CFDBFF560EF36EA0
:101B80001B0EF3CFDBFF0A0EF36E090EF3CFDBFF64
:101B90000A0EDB6A640E146E156A64C008F065C034
:101BA00009F014C00DF015C00EF086EC29F0100EEF
:101BB00008C0DBFF64C014F065C015F0640E0D6E44
:101BC0000E6A14C008F015C009F006EC2CF004C031
:101BD00014F005C015F00A0E0D6E0E6A14C008F060
:101BE00015C009F006EC2CF008C014F009C015F07F
:101BF000110E14C0DBFF64C014F065C015F00A0EAE
:101C00000D6E0E6A14C008F015C009F006EC2CF039
:101C100004C014F005C015F0120E14C0DBFF100E46
:101C2000DB50300FE76E200EE7CFDBFFDB50DF6EBF
:101C3000110EDB50300FE76E210EE7CFDBFFDB50DC
:101C4000E76E010EE7CFDBFF120EDB50300FE76EC1
:101C5000220EE7CFDBFFDB50E76E020EE7CFDBFFA4
:101C60000001CF0508E1D9CFE6FFDACFE6FF17EC98
:101C700026F0E552E552C00EE66ED6EC1EF0E552B7
:101C8000D950140FE66E000EDA20E66EBFEC1FF09E
:101C9000E552E5522A0EE15C02E2E16AE552E16EAC
:101CA000E552E7CFD9FF1200180E9412770EC86ED6
:101CB000280EC66EC56A800EC76EABEF05F0D9CF91
:101CC000E6FFE1CFD9FF040EE126DF6A010EDB6AF1
:101CD000DB50146E156A090E145C000E155826E2CE
:101CE000010EDB50EA6AA80FE96E000EEA22EF50FF
:101CF000020D020EF3CFDBFF72EC1EF0020EDBCF03
:101D0000E6FF84EC1EF0E552C5BC09D0DF2A8C8AC0
:101D10008A8A42EC05F08C9A8A9A42EC05F07EECB5
:101D20001EF06EEC04F0010EDB2AD2D7DF50000863
:101D300014E2030EDB6AF36EDBCFF4FFF350F45CC6
:101D40000BE28C8A8A8442EC05F08C9A8A9442ECED
:101D500005F0030EDB2AEFD706D08C8A8A86A3EC27
:101D600004F08C9A8A96040EE15C02E2E16AE55284
:0A1D7000E16EE552E7CFD9FF120043
:061D7A00D9CFE6FFE1CF26
:101D8000D9FF040EE126020EDB6A030EDB6A020EA7
:101D9000DBCF14F0030EDBCF15F0FD0EDBCF16F01A
:101DA000FE0EDBCF17F01650145C1750155816E2D4
:101DB000DE6ADD6ADECF14F0DDCF15F06C0E145C48
:101DC000220E155805E2DF2A010E01E3DB2AF2D7C5
:101DD000020EDB2A030E01E3DB2AD9D7040EE15CF5
:101DE00002E2E16AE552E16EE552E7CFD9FF120067
:101DF000D9CFE6FFE1CFD9FF130EE126086A096AC1
:101E0000080E08C0DBFF090E09C0DBFF060E08C084
:101E1000DBFF070E09C0DBFF040E08C0DBFF050E69
:101E200009C0DBFF020E08C0DBFF030E09C0DBFFA9
:101E3000110E08C0DBFF0F0EDB6A100EDB6ADE52EC
:101E4000010EDD6E300EE76E020EDBCF14F0030ED6
:101E5000DBCF15F0E7501426000E15220A0E14C031
:101E6000DBFF300EE76E040EDBCF14F0050EDBCF88
:101E700015F0E7501426000E15220B0E14C0DBFFE0
:101E8000300EE76E060EDBCF14F0070EDBCF15F039
:101E9000E7501426000E15220C0E14C0DBFF300E86
:101EA000E76E080EDBCF14F0090EDBCF15F0E7501C
:101EB0001426000E15220D0E14C0DBFF0E0EDB6A79
:101EC000DF6A010EE66ED6EC1EF0E552010EE66EFC
:101ED000060EE66EF8EC1EF0E552E552190EE66EBF
:101EE000570EE66E14EC1FF0E552E552020EE66E58
:101EF000060EE66EF8EC1EF0E552E552D9500A0FD8
:101F0000E66E000EDA20E66EBFEC1FF0E552E552F9
:101F1000020EE66E010EDB50050FE66EF8EC1EF0C9
:101F2000E552E5520F0EE66ED6EC1EF0E5521C0EA1
:101F30008114E76E120EE7CFDBFF42EC05F0120EC4
:101F4000DB50180801E099D0010EDB2A020EE66E84
:101F5000010EDB50050FE66EF8EC1EF0E552E5527F
:101F60000F0EE66ED6EC1EF0E5521C0E8114E76EE5
:101F7000120EE7CFDBFF120EDB501808F6E0010E61
:101F8000DB50040871E20C0EE66ED6EC1EF0E55252
:101F9000020EDBCF1AF0030EDBCF1BF0E80E1B02A4
:101FA000F3CF1BF0030E1A02F3501B26E80E1A02A1
:101FB000F3CF1AF0F4501B26640E086E096A040E63
:101FC000DBCF0DF0050EDBCF0EF0ACEC29F01A5094
:101FD0000624186E1B500720196E0A0E086E096A37
:101FE000060EDBCF0DF0070EDBCF0EF0ACEC29F0C8
:101FF00018500624166E19500720176E080EDB5075
:102000001624146E090EDB501720156E0F0E14C027
:10201000DBFF100E15C0DBFFDE52010EDD6ED95066
:102020000F0FE96EDACFEAFF8F0EEE1802E1120E03
:10203000ED1803E1010EDF6E17D0010EE66ED6EC4F
:102040001EF0E552800EE66ED6EC1EF0E552140E40
:10205000E66E570EE66E58EC1FF0E552E552A3EC23
:1020600004F0A3EC04F0EBD6110EDB6A010EE66E71
:10207000E66A83DEE552E55282D1120EDB500C088F
:1020800001E0AFD0110EDB2A110EDBCF14F0090EE8
:10209000E76E1418E8AE02D0143403D0E750D880AD
:1020A000145402E2110EDB6A1C0E8114E76E120E4C
:1020B000E7CFDBFF120EDB500C08F6E0010EDB5021
:1020C000040A43E0070A2DE0010A17E0030A01E0D1
:1020D00050D0110EDBCF14F0156A14BE1568020E35
:1020E00014C0DBFF030E15C0DBFF110EDB50300FF9
:1020F000E76E0A0EE7CFDBFF42D0110EDBCF14F004
:10210000156A14BE1568040E14C0DBFF050E15C059
:10211000DBFF110EDB50300FE76E0B0EE7CFDBFF5E
:102120002ED0110EDBCF14F0156A14BE1568060E02
:1021300014C0DBFF070E15C0DBFF110EDB50300FA4
:10214000E76E0C0EE7CFDBFF1AD0110EDBCF14F0D9
:10215000156A14BE1568080E14C0DBFF090E15C001
:10216000DBFF110EDB50300FE76E0D0EE7CFDBFF0C
:1021700006D0DE52010EDD6E0E0EDB6A00D00C0EB4
:10218000E66ED6EC1EF0E552C00EE66ED6EC1EF002
:10219000E552020EE66E060EE66EF8EC1EF0E55213
:1021A000E552D9500A0FE66E000EDA20E66EBFEC5B
:1021B0001FF0E552E552020EE66E010EDB50050FF0
:1021C000E66EF8EC1EF0E552E5520F0EE66ED6EC28
:1021D0001EF0E552010EE66EE66ACFDDE552E552ED
:1021E000CED0120EDB50140801E0A9D0110EDB0690
:1021F000110EDBCF14F0143405E3090EF36E110E4B
:10220000F3CFDBFF1C0E8114E76E120EE7CFDBFF6E
:10221000120EDB501408F6E0010EDB50040A43E016
:10222000070A2DE0010A17E0030A01E050D0110E61
:10223000DBCF14F0156A14BE1568020E14C0DBFF64
:10224000030E15C0DBFF110EDB50300FE76E0A0ED8
:10225000E7CFDBFF42D0110EDBCF14F0156A14BEBE
:102260001568040E14C0DBFF050E15C0DBFF110E50
:10227000DB50300FE76E0B0EE7CFDBFF2ED0110ED9
:10228000DBCF14F0156A14BE1568060E14C0DBFF10
:10229000070E15C0DBFF110EDB50300FE76E0C0E82
:1022A000E7CFDBFF1AD0110EDBCF14F0156A14BE96
:1022B0001568080E14C0DBFF090E15C0DBFF110EF8
:1022C000DB50300FE76E0D0EE7CFDBFF06D0DE529E
:1022D000010EDD6E02D00E0EDB6A0C0EE66ED6EC41
:1022E0001EF0E552C00EE66ED6EC1EF0E552020E70
:1022F000E66E060EE66EF8EC1EF0E552E552D95099
:102300000A0FE66E000EDA20E66EBFEC1FF0E55213
:10231000E552020EE66E010EDB50050FE66EF8EC9C
:102320001EF0E552E5520F0EE66ED6EC1EF0E552B9
:10233000010EE66EE66A21DDE552E55220D0120E6E
:10234000DB5004081CE1010EDB2A020EE66E010ED2
:10235000DB50050FE66EF8EC1EF0E552E5520F0E6D
:10236000E66ED6EC1EF0E5521C0E8114E76E120EDE
:10237000E7CFDBFF120EDB501808F6E0FF00DF505E
:1023800001E1D5D500D0130EE15C02E2E16AE5522D
:10239000E16EE552E7CFD9FF1200D9CFE6FFE1CFDA
:1023A000D9FFE652DF6AE66AB60EE66E580EE66EB2
:1023B000156ADF34FE0B1536146EFC0EDB50142448
:1023C000E96EFD0EDB501520EA6EEECFE6FFEFCF93
:1023D000E6FF010EE66EBFEC18F0166E060EE15E2B
:1023E000165081A6FED781B827D0DF2AFE0EDB501B
:1023F000DF5C01E1DF6AE66AB60EE66E580EE66E55
:10240000156ADF34FE0B1536146EFC0EDB501424F7
:10241000E96EFD0EDB501520EA6EEECFE6FFEFCF42
:10242000E6FF010EE66EBFEC18F0166E060EE15EDA
:10243000165081A8FED741D081B63FD081A6FED7E5
:10244000FE0EDB04DF5C02E13BD017D0176ADF34FD
:10245000FE0B1736166EFA0EDB501624E96EFB0ED5
:10246000DB501720EA6EEECF14F0EFCF15F004D05A
:1024700015C0FAFF1450F96EFBDFE66AB60EE66E81
:10248000580EE66E156ADF34FE0B1536146EFC0E20
:10249000DB501424E96EFD0EDB501520EA6EEECF02
:1024A000E6FFEFCFE6FF010EE66EBFEC18F0166E0A
:1024B000060EE15E165081A6FED742EC05F093D7DA
:1024C000E552E552E7CFD9FF1200D9CFE6FFE1CFC1
:1024D000D9FF220EE126050EDB6A060EDB6A070E27
:1024E000DB6A080EDB6A090EDB6A0A0EDB6A0B0E7A
:1024F000DB6A0C0EDB6A0D0EDB68030EF36E0E0E4C
:10250000F3CFDBFF0F0EDB6A100EDB6A81A684EFD0
:1025100017F0070EDB6A080EDB6ADF6ADFCF14F004
:102520000A0EE76E1418E8AE02D0E73402D0E75086
:10253000145C1DE2FE0EDBCFE6FF19EC06F0E5525F
:10254000050EF3CFDBFF060EF4CFDBFF050EDBCF6E
:1025500014F0060EDBCF15F0D950070FE96EDACF75
:10256000EAFF1450EE261550ED22DF2AD7D70A0EC7
:10257000146E156A070EDBCF08F0080EDBCF09F0EA
:1025800014C00DF015C00EF006EC2CF0070E08C0BC
:10259000DBFF080E09C0DBFF070EDBCF14F0080ECF
:1025A000DBCF15F00F0EDBCF16F0100EDBCF17F0E0
:1025B0001450165C155017580CE2070EDBCF08F0CC
:1025C000080EDBCF09F00F0E08C0DBFF100E09C0AC
:1025D000DBFF070EDBCF14F0080EDBCF15F00D0E7E
:1025E000DBCF16F00E0EDBCF17F01650145C175031
:1025F00015580CE2070EDBCF08F0080EDBCF09F010
:102600000D0E08C0DBFF0E0E09C0DBFF070EDBCF8F
:1026100014F0080EDBCF15F00001CC51145CCD5145
:10262000155801E3F9D1CCC018F0CDC019F01A6AE1
:102630001B6A070EDBCF1CF0080EDBCF1DF01E6AF5
:102640001F6A1C50185C146E1D501958156E1E50D0
:102650001A58166E1F501B58176E0B0E14C0DBFF56
:102660000C0E15C0DBFF0B0EDBCF06F00C0EDBCF24
:1026700007F0086A096AE80E0B6E030E0C6E0D6A0D
:102680000E6A8FEC2BF002C006F003C007F004C006
:1026900008F005C009F00B68030E0C6E0D6A0E6A97
:1026A000C7EC2BF00B0E06C0DBFF0C0E07C0DBFFE8
:1026B000200EF36E110EF3CFDBFF0B0EDBCF14F009
:1026C0000C0EDBCF15F0640E0D6E0E6A14C008F010
:1026D00015C009F086EC29F008C014F009C015F007
:1026E000300E1426000E1522120E14C0DBFF0B0E46
:1026F000DBCF14F00C0EDBCF15F0640E0D6E0E6AFE
:1027000014C008F015C009F006EC2CF004C014F059
:1027100005C015F00A0E0D6E0E6A14C008F015C043
:1027200009F006EC2CF008C014F009C015F0300ECA
:102730001426000E1522130E14C0DBFF0B0EDBCF88
:1027400014F00C0EDBCF15F00A0E0D6E0E6A14C0DD
:1027500008F015C009F006EC2CF004C014F005C018
:1027600015F0300E1426000E1522140E14C0DBFFD7
:10277000200EF36E150EF3CFDBFF7C0EF36E160EFC
:10278000F3CFDBFF200EF36E170EF3CFDBFF0F0E40
:10279000DB500001CC5D0001146E100EDB50000117
:1027A000CD590001156E0B0E14C0DBFF0C0E15C0C9
:1027B000DBFF0B0EDBCF06F00C0EDBCF07F0086A59
:1027C000096AE80E0B6E030E0C6E0D6A0E6A8FEC32
:1027D0002BF002C006F003C007F004C008F005C0EB
:1027E00009F00B68030E0C6E0D6A0E6AC7EC2BF035
:1027F0000B0E06C0DBFF0C0E07C0DBFF0B0EDBCFA2
:1028000014F00C0EDBCF15F0640E0D6E0E6A14C0C2
:1028100008F015C009F086EC29F008C014F009C0D2
:1028200015F0300E1426000E1522180E14C0DBFF12
:102830000B0EDBCF14F00C0EDBCF15F0640E0D6E1B
:102840000E6A14C008F015C009F006EC2CF004C0A4
:1028500014F005C015F00A0E0D6E0E6A14C008F0D3
:1028600015C009F006EC2CF008C014F009C015F0F2
:10287000300E1426000E1522190E14C0DBFF0B0EAD
:10288000DBCF14F00C0EDBCF15F00A0E0D6E0E6AC6
:1028900014C008F015C009F006EC2CF004C014F0C8
:1028A00005C015F0300E1426000E15221A0E14C0A5
:1028B000DBFF200EF36E1B0EF3CFDBFF7E0EF36EFD
:1028C0001C0EF3CFDBFF0D0EDB500001CC5D0001D1
:1028D000146E0E0EDB500001CD590001156E0B0E6B
:1028E00014C0DBFF0C0E15C0DBFF0B0EDBCF06F0B8
:1028F0000C0EDBCF07F0086A096AE80E0B6E030EB8
:102900000C6E0D6A0E6A8FEC2BF002C006F003C04D
:1029100007F004C008F005C009F00B68030E0C6E48
:102920000D6A0E6AC7EC2BF00B0E06C0DBFF0C0E17
:1029300007C0DBFF200EF36E1D0EF3CFDBFF0B0E87
:10294000DBCF14F00C0EDBCF15F0640E0D6E0E6AAB
:1029500014C008F015C009F086EC29F008C014F086
:1029600009C015F0300E1426000E15221E0E14C0DC
:10297000DBFF0B0EDBCF14F00C0EDBCF15F0640E7B
:102980000D6E0E6A14C008F015C009F006EC2CF0AC
:1029900004C014F005C015F00A0E0D6E0E6A14C0C6
:1029A00008F015C009F006EC2CF008C014F009C0BE
:1029B00015F0300E1426000E15221F0E14C0DBFF7A
:1029C0000B0EDBCF14F00C0EDBCF15F00A0E0D6EE4
:1029D0000E6A14C008F015C009F006EC2CF004C013
:1029E00014F005C015F0300E1426000E1522200E2E
:1029F00014C0DBFF210EDB6AC00EE66ED6EC1EF0C3
:102A0000E552D950110FE66E000EDA20E66EBFECEB
:102A10001FF0E552E5524FD2070EDBCF14F0080E3F
:102A2000DBCF15F01450CC5D1550CD5901E315D214
:102A3000070EDBCF18F0080EDBCF19F01A6A1B6AFD
:102A4000CCC01CF0CDC01DF01E6A1F6A1C50185C63
:102A5000146E1D501958156E1E501A58166E1F50C0
:102A60001B58176E0B0E14C0DBFF0C0E15C0DBFFDE
:102A70000B0EDBCF06F00C0EDBCF07F0086A096AFD
:102A8000E80E0B6E030E0C6E0D6A0E6A8FEC2BF0C7
:102A900002C006F003C007F004C008F005C009F04A
:102AA0000B68030E0C6E0D6A0E6AC7EC2BF00B0E52
:102AB00006C0DBFF0C0E07C0DBFF200EF36E110E0D
:102AC000F3CFDBFF0B0EDBCF14F00C0EDBCF15F0DA
:102AD000640E0D6E0E6A14C008F015C009F086EC85
:102AE00029F008C014F009C015F0300E1426000EAD
:102AF0001522120E14C0DBFF0B0EDBCF14F00C0EF0
:102B0000DBCF15F0640E0D6E0E6A14C008F015C010
:102B100009F006EC2CF004C014F005C015F00A0E04
:102B20000D6E0E6A14C008F015C009F006EC2CF00A
:102B300008C014F009C015F0300E1426000E15223E
:102B4000130E14C0DBFF0B0EDBCF14F00C0EDBCF2B
:102B500015F00A0E0D6E0E6A14C008F015C009F0CB
:102B600006EC2CF004C014F005C015F0300E14264D
:102B7000000E1522140E14C0DBFF200EF36E150E8E
:102B8000F3CFDBFF7C0EF36E160EF3CFDBFF200ED0
:102B9000F36E170EF3CFDBFF0D0EDBCF18F00E0E2A
:102BA000DBCF19F01A6A1B6ACCC01CF0CDC01DF037
:102BB0001E6A1F6A1C50185C146E1D501958156E41
:102BC0001E501A58166E1F501B58176E0B0E14C04D
:102BD000DBFF0C0E15C0DBFF0B0EDBCF06F00C0E7F
:102BE000DBCF07F0086A096AE80E0B6E030E0C6E65
:102BF0000D6A0E6A8FEC2BF002C006F003C007F0DE
:102C000004C008F005C009F00B68030E0C6E0D6AD5
:102C10000E6AC7EC2BF00B0E06C0DBFF0C0E07C0D4
:102C2000DBFF0B0EDBCF14F00C0EDBCF15F0640EC8
:102C30000D6E0E6A14C008F015C009F086EC29F07C
:102C400008C014F009C015F0300E1426000E15222D
:102C5000180E14C0DBFF0B0EDBCF14F00C0EDBCF15
:102C600015F0640E0D6E0E6A14C008F015C009F060
:102C700006EC2CF004C014F005C015F00A0E0D6E21
:102C80000E6A14C008F015C009F006EC2CF008C05C
:102C900014F009C015F0300E1426000E1522190E7E
:102CA00014C0DBFF0B0EDBCF14F00C0EDBCF15F0E6
:102CB0000A0E0D6E0E6A14C008F015C009F006EC7D
:102CC0002CF004C014F005C015F0300E1426000ED0
:102CD00015221A0E14C0DBFF200EF36E1B0EF3CF6D
:102CE000DBFF7E0EF36E1C0EF3CFDBFF0F0EDBCF90
:102CF00018F0100EDBCF19F01A6A1B6ACCC01CF05A
:102D0000CDC01DF01E6A1F6A1C50185C146E1D5049
:102D10001958156E1E501A58166E1F501B58176EF4
:102D20000B0E14C0DBFF0C0E15C0DBFF0B0EDBCF50
:102D300006F00C0EDBCF07F0086A096AE80E0B6E8E
:102D4000030E0C6E0D6A0E6A8FEC2BF002C006F0BB
:102D500003C007F004C008F005C009F00B68030EBB
:102D60000C6E0D6A0E6AC7EC2BF00B0E06C0DBFF73
:102D70000C0E07C0DBFF200EF36E1D0EF3CFDBFF42
:102D80000B0EDBCF14F00C0EDBCF15F0640E0D6EC6
:102D90000E6A14C008F015C009F086EC29F008C0CE
:102DA00014F009C015F0300E1426000E15221E0E68
:102DB00014C0DBFF0B0EDBCF14F00C0EDBCF15F0D5
:102DC000640E0D6E0E6A14C008F015C009F006EC12
:102DD0002CF004C014F005C015F00A0E0D6E0E6A3A
:102DE00014C008F015C009F006EC2CF008C014F06F
:102DF00009C015F0300E1426000E15221F0E14C047
:102E0000DBFF0B0EDBCF14F00C0EDBCF15F00A0E40
:102E10000D6E0E6A14C008F015C009F006EC2CF017
:102E200004C014F005C015F0300E1426000E152253
:102E3000200E14C0DBFF210EDB6AC00EE66ED6EC5E
:102E40001EF0E552D950110FE66E000EDA20E66E44
:102E5000BFEC1FF0E552E5522ED00B0EDB6A0C0ED4
:102E6000DB6A300EF36E110EF3CFDBFF300EF36E24
:102E7000120EF3CFDBFF300EF36E130EF3CFDBFF3A
:102E80006D0EF36E140EF3CFDBFF410EF36E150ED5
:102E9000F3CFDBFF160EDB6AC00EE66ED6EC1EF03B
:102EA000E552D950110FE66E000EDA20E66EBFEC47
:102EB0001FF0E552E552FD0EDB5024E0D9500B0F18
:102EC000E96EDACFEAFF320ED880EE54000EED54F0
:102ED0000BE30B0EDBCF14F00C0EDBCF15F00A0E5C
:102EE000145C000E155806E28C908C928C948C9693
:102EF000010E0ED0FC0EDB5003E0FC0EDB0602D010
:102F0000000E06D086EF12F081A6FED7000E00D08C
:102F1000146E220EE15C02E2E16AE552E16E1450A9
:102F2000E552E7CFD9FF12008150100B13E081501A
:102F3000080B10E0E66A25EC04F0E5528C8AD8EC28
:102F400004F0080EE66E25EC04F0E5528C9AD8ECFD
:102F500004F0EAD7E66A25EC04F0E552120085ECAD
:102F600028F0E66A25EC04F0E5528C8AD8EC04F0EF
:102F7000080EE66E25EC04F0E5528C9AD8EC04F0CD
:102F8000F0D71200E66A000EE66EE66A0A0EE66EFA
:102F9000570EE66E010EE66EBFEC18F0146E060ECC
:102FA000E15E1450E66AFD0EE66E560EE66E000E09
:102FB000E66EE66AE66ABFEC18F0146E060EE15E95
:102FC0001450A3EC04F0A3EC04F000D01200D9CF0D
:102FD000E6FFE1CFD9FFE652DF6AE66A8FEC26F022
:102FE000E5525BEC21F00001CF514CE0E66A000EA7
:102FF000E66EE66AF80EE66E560EE66E010EE66EB8
:10300000BFEC18F0146E060EE15E1450180EE66E5A
:103010008FEC26F0E5528150100B03E18150080B34
:1030200030E09EAA2DD09E9AAE50DF6E520EDF5C2D
:1030300012E1020EE66E000EE66EE66AF50EE66E30
:10304000560EE66E010EE66EBFEC18F0146E060E1C
:10305000E15E145016D0540EDF5C12E1020EE66EF3
:10306000000EE66EE66AEF0EE66E560EE66E010E96
:10307000E66EBFEC18F0146E060EE15E145001D03F
:10308000CAD710D0E66A000EE66EE66AEC0EE66E6F
:10309000560EE66E010EE66EBFEC18F0146E060ECC
:1030A000E15E1450A3EC04F0E552E552E7CFD9FFFE
:1030B0001200D9CFE6FFE1CFD9FF0B0EE126E30ED8
:1030C000DE6E560EDD6ED950020FE96EDACFEAFFE2
:1030D000DB0EEE6E560EED6ED950040FE96EDACFB0
:1030E000EAFFD60EEE6E560EED6ED950060FE96E63
:1030F000DACFEAFF840EEE6E2F0EED6ED950080F78
:10310000E96EDACFEAFFCE0EEE6E2F0EED6E030EF5
:10311000F36E0A0EF3CFDBFFF098E66A000EE66E60
:10312000E66AD10EE66E560EE66E010EE66EBFEC56
:1031300018F0146E060EE15E1450A3EC04F081A6A4
:10314000FED7D950060FE66E000EDA20E66ED9CF14
:10315000E6FFDACFE6FF0A0EDBCFE6FFCDEC11F09B
:10316000146E050EE15E1450FF000B0EE15C02E2EE
:0E317000E16AE552E16EE552E7CFD9FF1200A9
:02317E00D9CFA7
:10318000E6FFE1CFD9FFFE0EDB5005E0010EE66E53
:10319000D6EC1EF0E552D950FC0FE96EFF0EDA2096
:1031A000EA6EEE50ED100FE0800EE66ED6EC1EF0EB
:1031B000E552FC0EDBCFE6FFFD0EDBCFE6FF58EC61
:1031C0001FF0E552E552D950FA0FE96EFF0EDA20F2
:1031D000EA6EEE50ED100FE0C00EE66ED6EC1EF07B
:1031E000E552FA0EDBCFE6FFFB0EDBCFE6FF58EC35
:1031F0001FF0E552E552F90EDBCFF3FFDB06F3508B
:10320000000903E0A3EC04F0F6D7E552E7CFD9FFBD
:103210001200D9CFE6FFE1CFD9FFFE0EDB5005E06B
:10322000010EE66ED6EC1EF0E552D950FC0FE96EA9
:10323000FF0EDA20EA6EEE50ED100FE0800EE66E23
:10324000D6EC1EF0E552FC0EDBCFE6FFFD0EDBCF29
:10325000E6FFBFEC1FF0E552E552D950FA0FE96ED8
:10326000FF0EDA20EA6EEE50ED100FE0C00EE66EB3
:10327000D6EC1EF0E552FA0EDBCFE6FFFB0EDBCFFD
:10328000E6FFBFEC1FF0E552E552F90EDBCFF3FF8E
:10329000DB06F350000903E0A3EC04F0F6D7E55297
:1032A000E7CFD9FF1200D9CFE6FFE1CFD9FF150E46
:1032B000E126B1C0DFFF010EB2C0DBFF020EB3C0DA
:1032C000DBFF030EB4C0DBFF540EF36E040EF3CF2E
:1032D000DBFFD9CFE9FFDACFEAFFEECF14F0EECF74
:1032E00015F0EECF16F0EFCF17F00A0E0B6E0C6A4A
:1032F0000D6A0E6A14C006F015C007F016C008F07B
:1033000017C009F0C7EC2BF002C014F003C015F091
:1033100004C016F005C017F0300E1426000E15225A
:10332000162217220B0E14C0DBFFD9CFE9FFDACF2C
:10333000EAFFEECF06F0EECF07F0EECF08F0EFCFCA
:1033400009F00A0E0B6E0C6A0D6A0E6AC7EC2BF0C0
:1033500006C0DEFF07C0DEFF08C0DEFF09C0DDFFDC
:10336000DD52DD52D9CFE9FFDACFEAFFEECF14F01C
:10337000EECF15F0EECF16F0EFCF17F00A0E0B6E72
:103380000C6A0D6A0E6A14C006F015C007F016C06C
:1033900008F017C009F0C7EC2BF002C014F003C00E
:1033A00015F004C016F005C017F0300E1426000EFC
:1033B0001522162217220A0E14C0DBFFD9CFE9FF0F
:1033C000DACFEAFFEECF06F0EECF07F0EECF08F04F
:1033D000EFCF09F00B6E0C6A0D6A0E6AC7EC2BF08A
:1033E00006C0DEFF07C0DEFF08C0DEFF09C0DDFF4C
:1033F000DD52DD52D9CFE9FFDACFEAFFEECF14F08C
:10340000EECF15F0EECF16F0EFCF17F00A0E0B6EE1
:103410000C6A0D6A0E6A14C006F015C007F016C0DB
:1034200008F017C009F0C7EC2BF002C014F003C07D
:1034300015F004C016F005C017F0300E1426000E6B
:10344000152216221722090E14C0DBFFD9CFE9FF7F
:10345000DACFEAFFEECF06F0EECF07F0EECF08F0BE
:10346000EFCF09F00A0E0B6E0C6A0D6A0E6AC7ECFC
:103470002BF006C0DEFF07C0DEFF08C0DEFF09C07C
:10348000DDFFDD52DD52D9CFE9FFDACFEAFFEECF23
:1034900014F0EECF15F0EECF16F0EFCF17F00A0EC6
:1034A0000B6E0C6A0D6A0E6A14C006F015C007F0A8
:1034B00016C008F017C009F0C7EC2BF002C014F0DA
:1034C00003C015F004C016F005C017F0300E142626
:1034D000000E152216221722080E14C0DBFFD9CFCA
:1034E000E9FFDACFEAFFEECF06F0EECF07F0EECF3E
:1034F00008F0EFCF09F00A0E0B6E0C6A0D6A0E6A27
:10350000C7EC2BF006C0DEFF07C0DEFF08C0DEFF01
:1035100009C0DDFFDD52DD52D9CFE9FFDACFEAFF86
:10352000EECF14F0EECF15F0EECF16F0EFCF17F090
:103530000A0E0B6E0C6A0D6A0E6A14C006F015C0F6
:1035400007F016C008F017C009F0C7EC2BF002C056
:1035500014F003C015F004C016F005C017F0300ECB
:103560001426000E152216221722070E14C0DBFFA8
:10357000D9CFE9FFDACFEAFFEECF06F0EECF07F0C2
:10358000EECF08F0EFCF09F00A0E0B6E0C6A0D6A51
:103590000E6AC7EC2BF006C0DEFF07C0DEFF08C0D6
:1035A000DEFF09C0DDFFDD52DD52D9CFE9FFDACF02
:1035B000EAFFEECF14F0EECF15F0EECF16F0EFCF1E
:1035C00017F00A0E0B6E0C6A0D6A0E6A14C006F034
:1035D00015C007F016C008F017C009F0C7EC2BF0B3
:1035E00002C014F003C015F004C016F005C017F0B7
:1035F000300E1426000E152216221722060E14C0B5
:10360000DBFFD9CFE9FFDACFEAFFEECF06F0EECF4E
:1036100007F0EECF08F0EFCF09F00A0E0B6E0C6A40
:103620000D6A0E6AC7EC2BF006C0DEFF07C0DEFF96
:1036300008C0DEFF09C0DDFFDD52DD52D9CFE9FF52
:10364000DACFEAFFEECF14F0EECF15F0EECF16F0A2
:10365000EFCF17F00A0E0B6E0C6A0D6A0E6A14C0DB
:1036600006F015C007F016C008F017C009F0C7EC47
:103670002BF002C014F003C015F004C016F005C012
:1036800017F0300E1426000E152216221722050EF2
:1036900014C0DBFFD9CFE9FFDACFEAFFEECF06F0A7
:1036A000EECF07F0EECF08F0EFCF09F00A0E0B6E69
:1036B0000C6A0D6A0E6AC7EC2BF006C0DEFF07C06D
:1036C000DEFF08C0DEFF09C0DDFFDD52DD527C0EEB
:1036D000F36E0C0EF3CFDBFFB5C0DFFF010EB6C0FB
:1036E000DBFF020EB7C0DBFF030EB8C0DBFF500EDE
:1036F000F36E0D0EF3CFDBFFD9CFE9FFDACFEAFF90
:10370000EECF14F0EECF15F0EECF16F0EFCF17F0AE
:103710000A0E0B6E0C6A0D6A0E6A14C006F015C014
:1037200007F016C008F017C009F0C7EC2BF002C074
:1037300014F003C015F004C016F005C017F0300EE9
:103740001426000E152216221722130E14C0DBFFBA
:10375000D9CFE9FFDACFEAFFEECF06F0EECF07F0E0
:10376000EECF08F0EFCF09F00A0E0B6E0C6A0D6A6F
:103770000E6AC7EC2BF006C0DEFF07C0DEFF08C0F4
:10378000DEFF09C0DDFFDD52DD52D9CFE9FFDACF20
:10379000EAFFEECF14F0EECF15F0EECF16F0EFCF3C
:1037A00017F00A0E0B6E0C6A0D6A0E6A14C006F052
:1037B00015C007F016C008F017C009F0C7EC2BF0D1
:1037C00002C014F003C015F004C016F005C017F0D5
:1037D000300E1426000E152216221722120E14C0C7
:1037E000DBFFD9CFE9FFDACFEAFFEECF06F0EECF6D
:1037F00007F0EECF08F0EFCF09F00A0E0B6E0C6A5F
:103800000D6A0E6AC7EC2BF006C0DEFF07C0DEFFB4
:1038100008C0DEFF09C0DDFFDD52DD52D9CFE9FF70
:10382000DACFEAFFEECF14F0EECF15F0EECF16F0C0
:10383000EFCF17F00A0E0B6E0C6A0D6A0E6A14C0F9
:1038400006F015C007F016C008F017C009F0C7EC65
:103850002BF002C014F003C015F004C016F005C030
:1038600017F0300E1426000E152216221722110E04
:1038700014C0DBFFD9CFE9FFDACFEAFFEECF06F0C5
:10388000EECF07F0EECF08F0EFCF09F00A0E0B6E87
:103890000C6A0D6A0E6AC7EC2BF006C0DEFF07C08B
:1038A000DEFF08C0DEFF09C0DDFFDD52DD52D9CFEB
:1038B000E9FFDACFEAFFEECF14F0EECF15F0EECF4E
:1038C00016F0EFCF17F00A0E0B6E0C6A0D6A0E6A37
:1038D00014C006F015C007F016C008F017C009F0B4
:1038E000C7EC2BF002C014F003C015F004C016F0B2
:1038F00005C017F0300E1426000E152216221722CE
:10390000100E14C0DBFFD9CFE9FFDACFEAFFEECF0C
:1039100006F0EECF07F0EECF08F0EFCF09F00A0E79
:103920000B6E0C6A0D6A0E6AC7EC2BF006C0DEFF48
:1039300007C0DEFF08C0DEFF09C0DDFFDD52DD523B
:10394000D9CFE9FFDACFEAFFEECF14F0EECF15F0D2
:10395000EECF16F0EFCF17F00A0E0B6E0C6A0D6A61
:103960000E6A14C006F015C007F016C008F017C0A4
:1039700009F0C7EC2BF002C014F003C015F004C02E
:1039800016F005C017F0300E1426000E1522162270
:1039900017220F0E14C0DBFFD9CFE9FFDACFEAFF01
:1039A000EECF06F0EECF07F0EECF08F0EFCF09F044
:1039B0000A0E0B6E0C6A0D6A0E6AC7EC2BF006C07D
:1039C000DEFF07C0DEFF08C0DEFF09C0DDFFDD52FD
:1039D000DD52D9CFE9FFDACFEAFFEECF14F0EECF18
:1039E00015F0EECF16F0EFCF17F00A0E0B6E0C6A43
:1039F0000D6A0E6A14C006F015C007F016C008F074
:103A000017C009F0C7EC2BF002C014F003C015F08A
:103A100004C016F005C017F0300E1426000E152253
:103A2000162217220E0E14C0DBFFD9CFE9FFDACF22
:103A3000EAFFEECF06F0EECF07F0EECF08F0EFCFC3
:103A400009F00A0E0B6E0C6A0D6A0E6AC7EC2BF0B9
:103A500006C0DEFF07C0DEFF08C0DEFF09C0DDFFD5
:103A6000DD52DD52D9CFE9FFDACFEAFFEECF06F023
:103A7000EECF07F0EECF08F0EFCF09F00A0E0B6E95
:103A80000C6A0D6A0E6AC7EC2BF006C0DEFF07C099
:103A9000DEFF08C0DEFF09C0DDFFDD52DD52140E7F
:103AA000DB6A800EE66E82D9E552D950040FE66ECD
:103AB000000EDA20E66E63DAE552E552150EE15C9F
:103AC00002E2E16AE552E16EE552E7CFD9FF12006A
:103AD000D9CFE6FFE1CFD9FF020EE126DC0EDE6E84
:103AE000050EDD6E080EE66E25EC04F0E55281A4AD
:103AF00052D0DECF14F0DDCF15F0F40E0D6E010EB6
:103B00000E6E14C008F015C009F006EC2CF004C0CD
:103B100014F005C015F01450151032E18C7AD9CF8D
:103B2000E9FFDACFEAFFDC0EEE1802E1050EED1830
:103B300016E1E66AFA0EE66E550EE66EFC0EE66ECD
:103B4000550EE66E010EE66EBFEC18F0146E060E12
:103B5000E15E1450E66A25EC04F0E55211D0D9CFAD
:103B6000E9FFDACFEAFFB80EEE1802E10B0EED180E
:103B700007E1DE6ADD6A080EE66E25EC04F0E55228
:103B8000DF2A010E01E3DB2ADFEC05F0DFEC05F0B4
:103B9000DFEC05F0ACD7E66A25EC04F0E5528C9A30
:103BA000020EE15C02E2E16AE552E16EE552E7CF26
:103BB000D9FF1200D9CFE6FFE1CFD9FF020EE126EF
:103BC000DC0EDE6E050EDD6EDECF14F0DDCF15F0FF
:103BD000F40E0D6E010E0E6E14C008F015C009F043
:103BE00006EC2CF004C014F005C015F014501510AC
:103BF00039E18C7AD9CFE9FFDACFEAFFDC0EEE1893
:103C000002E1050EED1811E1E66A000EE66EE66AC5
:103C1000EE0EE66E550EE66E010EE66EBFEC18F087
:103C2000146E060EE15E14501DD0D9CFE9FFDACF35
:103C3000EAFFB80EEE1802E10B0EED1813E1E66A8A
:103C40000A0EE66E560EE66EE10EE66E550EE66E56
:103C5000010EE66EBFEC18F0146E060EE15E145015
:103C6000DE6ADD6ADF2A010E01E3DB2ADFEC05F004
:103C7000DFEC05F0DFEC05F081B40DD042EC05F08F
:103C800081B409D0E66A25EC04F0E5528C9A020E64
:103C9000E15C04E201D098D7E16AE552E16EE552B9
:103CA000E7CFD9FF1200180E9412C66AC56AC76A18
:103CB0009E969D96800EC76E280EC66EC56A770EBC
:103CC000C86E6EEC04F09D969E96DFEF05F0A1B6EF
:103CD000FED7C750010B03E1C750040B01E0F9D731
:103CE0009E961200040EC71403E11F0EC51401E0D6
:103CF000F9D7C580C5B0FED79E961200E8DFC5840F
:103D0000C5B4FED79E961200D9CFE6FFE1CFD9FF0A
:103D1000FE0EDB50C96EDBDFE552E7CFD9FF1200A4
:103D2000D9CFE6FFE1CFD9FFDDDFCBC0E6FFECDF87
:103D3000E552FE0EDB500001CE11E66EE5DFE552E6
:103D4000DDDFE552E7CFD9FF1200D9CFE6FFE1CFA3
:103D5000D9FFFE0EDBCFE7FF0001CA51E712FE0ECE
:103D6000E7CFDBFFDB50FB0BE66EDADFE552020E3E
:103D7000E66E50EC2CF0E552FE0EDB500409E66EC8
:103D8000CFDFE552020EE66E50EC2CF0E552FE0E4F
:103D9000DB50FB0BE66EC4DFE552050EE66E30EC41
:103DA0002CF0E552E552E7CFD9FF1200D9CFE6FF5C
:103DB000E1CFD9FF0001CA6BFE0EDB50F00BE66EBF
:103DC000C4DFE552FE0EDB38F00BF00BE66EBDDF14
:103DD000E552FE0EDB0404E0FE0EDB50020802E1B9
:103DE000DFEC05F0DFEC05F0E552E7CFD9FF12007C
:103DF000D9CFE6FFE1CFD9FFFD0EDB50020A01E08B
:103E000008D0FE0EDB50C00FFF0FE66ECFDFE5528D
:103E100007D0FE0EDB50800FFF0FE66EC7DFE552C6
:103E2000E552E7CFD9FF1200D9CFE6FFE1CFD9FFA6
:103E3000E652DF6A0001010ECA6FDF50E76EFD0E29
:103E4000DBCFF6FFFE0EDBCFF7FFE750F626000EC6
:103E5000F7220800F55027E0DF50E76EFD0EDBCFBC
:103E6000F6FFFE0EDBCFF7FFE750F626000EF72237
:103E70000800F550F00BE66E68DFE552DF50DF2AF0
:103E8000E76EFD0EDBCFF6FFFE0EDBCFF7FFE75050
:103E9000F626000EF7220800F538F00BF00BE66E60
:103EA00054DFE552CAD7E552E552E7CFD9FF1200F9
:103EB000D9CFE6FFE1CFD9FF020EE126200EDF6E5B
:103EC000010EDB6A0001CA6F010EDB50E76EFD0ECA
:103ED000DBCFF6FFFE0EDBCFF7FFE750F626000E36
:103EE000F7220800F5502BE0010EDB50E76EFD0EC7
:103EF000DBCFF6FFFE0EDBCFF7FFE750F626000E16
:103F0000F7220800F550F00BE66E1FDFE552010EB8
:103F1000DBCFF3FFDB2AF350E76EFD0EDBCFF6FFBE
:103F2000FE0EDBCFF7FFE750F626000EF722080063
:103F3000F538F00BF00BE66E08DFE552C5D7100E32
:103F4000F36E010EDBCFF4FFF350F45C0EE2F00EE3
:103F5000DF14E66EFADEE552DF38F00BF00BE66EAA
:103F6000F4DEE552010EDB2AEAD7020EE15C02E242
:103F7000E16AE552E16EE552E7CFD9FF1200D9CFF1
:103F8000E6FFE1CFD9FFE652DF6A0001010ECA6FFA
:103F9000DF50E76EFD0EDBCFE9FFFE0EDBCFEAFF61
:103FA000E750E926000EEA22EF5025E0DF50E76EE9
:103FB000FD0EDBCFE9FFFE0EDBCFEAFFE750E9267F
:103FC000000EEA22EF50F00BE66EBFDEE552DF5046
:103FD000DF2AE76EFD0EDBCFE9FFFE0EDBCFEAFF47
:103FE000E750E926000EEA22EF38F00BF00BE66E00
:103FF000ACDEE552CDD7E552E552E7CFD9FF12004E
:10400000D9CFE6FFE1CFD9FFFE0EDBCFCBF0000129
:10401000080ECE6F0001CA6BCEC0E6FF81DEE5520E
:1040200077EC05F0300EE66E90DEE5526EEC04F0B3
:10403000300EE66E8ADEE5526EEC04F0300EE66E6F
:1040400084DEE5526EEC04F0200EE66E7EDEE55274
:104050006EEC04F0280EE66EA9DEE5526EEC04F07C
:104060000C0EE66EA3DEE5526EEC04F0010EE66E79
:104070009DDEE5526EEC04F0060EE66E97DEE5522C
:0C4080006EEC04F0E552E7CFD9FF12000F
:04408C000001240EFD
:10409000C96FC9C0ACFF900EAB6E080EB86EB06AA7
:1040A000680EAF6E1200E66AC70EE66E560EE66E3A
:1040B000000EE66EE66A010EE66EBFEC18F0146EB6
:1040C000060EE15E14508150040B1FE18150100B6D
:1040D0001CE10001010EC76FE66AC7C0E6FF52ECA3
:1040E00004F0E552E552020EE66EC30EE66E560E81
:1040F000E66E000EE66EE66A010EE66EBFEC18F0A4
:10410000146E060EE15E145002D081B6DCD71200A8
:10411000E66ABA0EE66E560EE66E000EE66EE66AC9
:10412000010EE66EBFEC18F0146E060EE15E145040
:104130008150040B1EE18150100B1BE10001C76B85
:10414000E66AC7C0E6FF52EC04F0E552E552020E03
:10415000E66EB70EE66E560EE66E000EE66EE66A88
:10416000010EE66EBFEC18F0146E060EE15E145000
:1041700002D081B6DDD71200E66AAF0EE66E560EAB
:10418000E66E000EE66EE66A010EE66EBFEC18F013
:10419000146E060EE15E14508150040B20E1815034
:1041A000100B1DE10001010EC86F020EE66EC8C0C3
:1041B000E6FF52EC04F0E552E552020EE66EC30E45
:1041C000E66E560EE66E000EE66EE66A010EE66ECE
:1041D000BFEC18F0146E060EE15E145002D081B6EA
:1041E000DBD71200E66AA80EE66E560EE66E000EEB
:1041F000E66EE66A010EE66EBFEC18F0146E060E6F
:10420000E15E14508150040B1FE18150100B1CE142
:104210000001C86B020EE66EC8C0E6FF52EC04F067
:10422000E552E552020EE66EB70EE66E560EE66EEB
:10423000000EE66EE66A010EE66EBFEC18F0146E34
:10424000060EE15E145002D081B6DCD71200D9CF41
:10425000E6FFE1CFD9FF020EE126F40EDE6E010E7D
:10426000DD6E81AC1AD081AC18D0D9CFE9FFDACF9E
:10427000EAFFEE50ED1002E1010E11D08150040B67
:1042800005E18150100B02E1000E09D06EEC04F044
:10429000DF06010E01E2DB06E6D7000E00D0146E49
:1042A000020EE15C02E2E16AE552E16E1450E55271
:1042B000E7CFD9FF1200D9CFE6FFE1CFD9FF020E39
:1042C000E126900EDE6E650EDD6E81BC39D0E66AA9
:1042D000940EE66E560EE66EA00EE66E560EE66E76
:1042E000010EE66EBFEC18F0146E060EE15E14507F
:1042F00081BC26D0D9CFE9FFDACFEAFFEE50ED102E
:1043000011E1E66A8B0EE66E560EE66E000EE66E64
:10431000E66AE66ABFEC18F0146E060EE15E145011
:10432000AFEC17F08150040B04E18150100B01E158
:104330000AD06EEC04F0DF06010E01E2DB06D8D7EE
:104340000001010ECF6F020EE15C02E2E16AE5526C
:10435000E16EE552E7CFD9FF1200D9CFE6FFE1CFFA
:10436000D9FF030EE126B80EF36E010EF3CFDBFF8B
:104370000B0EF36E020EF3CFDBFF8150080B03E14F
:104380008150100B1BE09EAA18D09E9AAE50DF6E93
:10439000530EDF5C02E1000E11D0ABEC05F0010E14
:1043A000DBCF14F0DB06020EDBCF15F001E2DB06FB
:1043B0001450151002E1010E01D0DFD7146E030E68
:1043C000E15C02E2E16AE552E16E1450E552E7CFAA
:1043D000D9FF1200D9CFE6FFE1CFD9FFE652AB9863
:1043E0009E9AAB88AE50DF6EAE50DF6EE552E5525E
:1043F000E7CFD9FF1200D9CFE6FFE1CFD9FF030EF7
:10440000E126E00EDE6E2E0EDD6E020EDB6A9E9A57
:10441000E66A000EE66EE66A800EE66E560EE66E00
:10442000E66ABFEC18F0146E060EE15E145081507F
:10443000040B04E18150100B01E149D29EAA0DD278
:104440009E9A020EAECFDBFFDB50420A01E1CAD1D9
:104450000E0A01E18CD11D0A01E15DD1150A01E1CD
:1044600033D1070A01E107D10D0A01E1CED0060AD6
:1044700001E195D01B0A65E0010A35E0130A2CE042
:1044800042EC05F0C20EE96E000EEA6E040EE9265B
:10449000000EEA22EF500F0BE82AF36EF3500F0BD9
:1044A000F36EF46EF00EEF14F310EF6EF4508C8A8E
:1044B000010EE66E4B0EE66E580EE66E000EE66ED0
:1044C000E66A010EE66EBFEC18F0146E060EE15EB1
:1044D00014508C9A030EFBD10001C691C693C69569
:1044E000C697000EF4D142EC05F0C20EE96E000E44
:1044F000EA6E040EE926000EEA22EF500F0BE82ABE
:10450000F36EF3500F0BF36EF46EF00EEF14F31026
:10451000EF6EF4508C8A42EC05F0020EE66E770ED8
:10452000E66E560EE66E000EE66EE66A010EE66E6A
:10453000BFEC18F0146E060EE15E14508C9A010E5A
:10454000C6D142EC05F0C20EE96E000EEA6E040E12
:10455000E926000EEA22EF500F0BE82AF36EF35023
:104560000F0BF36EF46EF00EEF14F310EF6EF450C9
:104570008C8A42EC05F0020EE66E690EE66E560E6F
:10458000E66E000EE66EE66A010EE66EBFEC18F00F
:10459000146E060EE15E14508C9A030E98D142EC14
:1045A00005F0C20EE96E000EEA6E040EE926000E5A
:1045B000EA22EF500F0BE82AF36EF3500F0BF36E65
:1045C000F46EF00EEF14F310EF6EF450010EE66E81
:1045D000C70EE66E580EE66E580EE66E560EE66E86
:1045E000010EE66EBFEC18F0146E060EE15E14507C
:1045F0008150040B07E08150100B04E08C7AD8EC5A
:1046000004F0F6D78C9A010E62D142EC05F0C20E8E
:10461000E96E000EEA6E040EE926000EEA22EF5063
:104620000F0BE82AF36EF3500F0BF36EF46EF00EDF
:10463000EF14F310EF6EF450010EE66EC70EE66E47
:10464000580EE66E4A0EE66E560EE66E010EE66EE9
:10465000BFEC18F0146E060EE15E14508150040B8E
:1046600007E08150100B04E08C7AD8EC04F0F6D708
:104670008C9A010E2CD142EC05F08C8A85EC28F046
:10468000010EE66EC70EE66E580EE66E380EE66E4A
:10469000560EE66E010EE66EBFEC18F0146E060EB6
:1046A000E15E14508150040B07E08150100B04E0D0
:1046B0008C7AD8EC04F0F6D78C9A010EE66ED6EC24
:1046C0001EF0E552020E03D142EC05F08C8A010E79
:1046D000E66EC70EE66E580EE66E2A0EE66E560EB3
:1046E000E66E010EE66EBFEC18F0146E060EE15E8B
:1046F00014508150040B07E08150100B04E08C7AB9
:10470000D8EC04F0F6D78C9A010EE66ED6EC1EF0CB
:10471000E552020EDCD042EC05F0C20EE96E000E4E
:10472000EA6E040EE926000EEA22EF500F0BE82A8B
:10473000F36EF3500F0BF36EF46EF00EEF14F310F4
:10474000EF6EF4508C8A010EE66E450EE66E580E42
:10475000E66E000EE66EE66A010EE66EBFEC18F03D
:10476000146E060EE15E14508C9A030EB0D042EC2B
:1047700005F0C20EE96E000EEA6E040EE926000E88
:10478000EA22EF500F0BE82AF36EF3500F0BF36E93
:10479000F46EF00EEF14F310EF6EF450010EE66EAF
:1047A000C70EE66E580EE66E4A0EE66E560EE66EC2
:1047B000010EE66EBFEC18F0146E060EE15E1450AA
:1047C0008150040B07E08150100B04E08C7AD8EC88
:1047D00004F0F6D78C9A010EE66ED6EC1EF0E55288
:1047E000010E75D042EC05F0C20EE96E000EEA6EC5
:1047F000040EE926000EEA22EF500F0BE82AF36EB2
:10480000F3500F0BF36EF46EF00EEF14F310EF6E27
:10481000F450010EE66EC70EE66E580EE66E1B0EE5
:10482000E66E560EE66E010EE66EBFEC18F0146EE4
:10483000060EE15E14508150040B07E08150100B0E
:1048400004E08C7AD8EC04F0F6D78C9A010EE66E70
:10485000D6EC1EF0E552010E3AD0D9CFE9FFDACFFF
:10486000EAFFEE50ED102CE142EC05F0C20EE96ECD
:10487000000EEA6E040EE926000EEA22EF500F0B3E
:10488000E82AF36EF3500F0BF36EF46EF00EEF1494
:10489000F310EF6EF4508C8A010EE66E570EE66E42
:1048A000580EE66E000EE66EE66A010EE66EBFEC8E
:1048B00018F0146E060EE15E14508C9A030E07D0A9
:1048C0006EEC04F0DF06010E01E2DB06B0D5146EDB
:1048D000030EE15C02E2E16AE552E16E1450E5523A
:1048E000E7CFD9FF1200D9CFE6FFE1CFD9FFACA2C5
:1048F000FED7FD0EDBCF14F0FE0EDBCF15F0E80E79
:104900000D6E030E0E6E14C008F015C009F086EC93
:1049100029F008C014F009C015F0300E1424AD6E53
:10492000ACA2FED7FD0EDBCF14F0FE0EDBCF15F0F0
:10493000E80E0D6E030E0E6E14C008F015C009F0DF
:1049400006EC2CF004C014F005C015F0640E0D6EDA
:104950000E6A14C008F015C009F006EC2CF008C06F
:1049600014F009C015F0300E1424AD6EACA2FED7C1
:10497000FD0EDBCF14F0FE0EDBCF15F0640E0D6ED6
:104980000E6A14C008F015C009F006EC2CF004C043
:1049900014F005C015F00A0E0D6E0E6A14C008F072
:1049A00015C009F006EC2CF008C014F009C015F091
:1049B000300E1424AD6EACA2FED7FD0EDBCF14F08A
:1049C000FE0EDBCF15F00A0E0D6E0E6A14C008F055
:1049D00015C009F006EC2CF004C014F005C015F069
:1049E000300E1424AD6EE552E7CFD9FF1200D9CFB7
:1049F000E6FFE1CFD9FFACA2FED7FD0EDBCF14F06E
:104A0000FE0EDBCF15F0E80E0D6E030E0E6E14C019
:104A100008F015C009F006EC2CF004C014F005C035
:104A200015F0640E0D6E0E6A14C008F015C009F082
:104A300006EC2CF008C014F009C015F0300E142458
:104A4000AD6EACA2FED7FD0EDBCF14F0FE0EDBCFB9
:104A500015F0640E0D6E0E6A14C008F015C009F052
:104A600006EC2CF004C014F005C015F00A0E0D6E13
:104A70000E6A14C008F015C009F006EC2CF008C04E
:104A800014F009C015F0300E1424AD6EACA2FED7A0
:104A9000FD0EDBCF14F0FE0EDBCF15F00A0E0D6E0F
:104AA0000E6A14C008F015C009F006EC2CF004C022
:104AB00014F005C015F0300E1424AD6EACA2FED774
:104AC0002C0EAD6EACA2FED7FB0EDBCF14F0FC0EAD
:104AD000DBCF15F0E80E0D6E030E0E6E14C008F05D
:104AE00015C009F086EC29F008C014F009C015F0D3
:104AF000300E1424AD6EACA2FED7FB0EDBCF14F04B
:104B0000FC0EDBCF15F0E80E0D6E030E0E6E14C01A
:104B100008F015C009F006EC2CF004C014F005C034
:104B200015F0640E0D6E0E6A14C008F015C009F081
:104B300006EC2CF008C014F009C015F0300E142457
:104B4000AD6EACA2FED7FB0EDBCF14F0FC0EDBCFBC
:104B500015F0640E0D6E0E6A14C008F015C009F051
:104B600006EC2CF004C014F005C015F00A0E0D6E12
:104B70000E6A14C008F015C009F006EC2CF008C04D
:104B800014F009C015F0300E1424AD6EACA2FED79F
:104B9000FB0EDBCF14F0FC0EDBCF15F00A0E0D6E12
:104BA0000E6A14C008F015C009F006EC2CF004C021
:104BB00014F005C015F0300E1424AD6EACA2FED773
:104BC0000A0EAD6EE552E7CFD9FF1200948494929D
:104BD000240EAC6E900EAB6E080EB86EB06A680E06
:104BE000AF6E9F8AF26A9D9A1200D9CFE6FFE1CF9D
:104BF000D9FF9E9A9EAAFED7FD0EDBCFE9FFFE0EDF
:104C0000DBCFEAFFAECFEFFFFD0EDBCFE9FFFE0EFD
:104C1000DBCFEAFFEF5001E106D0FD0EDB2AFE0EEE
:104C200001E3DB2AE7D7E552E7CFD9FF1200D9CF5E
:104C3000E6FFE1CFD9FFFD0EDBCFE9FFFE0EDBCFB4
:104C4000EAFFEF5010E0ACA2FED7FD0EDBCFE9FF8C
:104C5000FE0EDBCFEAFFEF50AD6EFD0EDB2AFE0E3F
:104C600001E3DB2AE8D7E552E7CFD9FF1200D9CF1D
:104C7000E6FFE1CFD9FFACA2FED7FE0EDB50AD6E52
:104C8000E552E7CFD9FF1200D9CFE6FFE1CFD9FF38
:104C9000FD0EDBCFF6FFFE0EDBCFF7FF0800F55071
:104CA00011E0ACA2FED7FD0EDBCFF6FFFE0EDBCF90
:104CB000F7FF0800F550AD6EFD0EDB2AFE0E01E396
:104CC000DB2AE6D7E552E7CFD9FF1200D9CFE6FFBE
:104CD000E1CFD9FF020EE126160EDE6E560EDD6E16
:104CE000DECFF6FFDDCFF7FF0800F5500EE0ACA2F7
:104CF000FED7DECFF6FFDDCFF7FF0800F550AD6E33
:104D0000DF2A010E01E3DB2AEBD7020EE15C02E2AF
:104D1000E16AE552E16EE552E7CFD9FF1200D9CF43
:104D2000E6FFE1CFD9FFACA2FED7FE0EDB50AD6EA1
:104D3000E552E7CFD9FF1200ACA2FED70A0EAD6E46
:024D400012005F
:0E4D4200DACFE4FFE652F092E552E5CFDAFF59
:104D50001100D8CFE4FFE0CFE4FFE46EDACFE4FF48
:104D6000E652E552E5CFDAFFE550E5CFE0FFE5CFCB
:104D7000D8FF10001DDAE6523AD80001C70503E15A
:104D80000001CF6B02D05BEC21F0010EE66E830ECA
:104D9000E66E550EE66E8F0EE66E550E4CDA33DA81
:104DA000BAD9E66A000EE66EE66A620EE66E550E47
:104DB00042DA20D9D3D953EC19F089968AD977EC05
:104DC00005F053D9898642EC05F025D9DF6EDFCF97
:104DD000E6FF31D9E552899642EC05F055D900013C
:104DE000CF05E8E1E66A8FEC26F0E552E3D7E0D99B
:104DF000040EE126959A8C9A95988C9893949398A2
:104E00009396939A8A948A988A968A9A9690929878
:104E100092968D908998899694809280939A938C9B
:104E2000938E8A9A938693889384928092829284B6
:104E30006D966F868C980DEC05F08A840DEC05F06C
:104E40008A940DEC05F08A880DEC05F08A980DEC3B
:104E500005F08A860DEC05F08A960DEC05F08A8A3D
:104E60000DEC05F08A9A0DEC05F0A3EC04F08C88AB
:104E700042EC05F08C980DEC05F0DF6A050EDF5C66
:104E80000AE28C8A8A8477EC05F08C9A8A9477EC13
:104E900005F0DF2AF3D7A3EC04F0DF6A030EDF5C32
:104EA0000AE28C8A8A880DEC05F08C9A8A980DECBF
:104EB00005F0DF2AF3D7A3EC04F053EC1EF013EC5B
:104EC00006F00DEC05F00DEC05F000014E0EBD6F87
:104ED000E66E7ED9490EE66E550EE66E560EE66E0D
:104EE000550EA9D982D98A860DEC05F08A9681D90A
:104EF00042EC05F04E0E74D98A8442EC05F08A9497
:104F000072EC1EF0020EDBCFE6FF84EC1EF0E552E1
:104F1000C5BC03D07EEC1EF02CD07EEC1EF0020E41
:104F2000DB6A010EDB6ADB50146E156A030E145C3B
:104F3000000E15582AE2010EDB50EA6ABE0FE96E38
:104F4000000EEA22EF50020D030EF3CFDBFF72ECEE
:104F50001EF0030EDBCFE6FF84EC1EF0E552C5BC6D
:104F60000DD07EEC1EF0030EDB50E76E020EE7CF95
:104F7000DBFF8A8A42EC05F08A9A07D07EEC1EF0AD
:104F80006EEC04F0010EDB2ACED7020EDB5006E1F8
:104F90004E0E26D98A8842EC05F08A980DEC05F071
:104FA000020EDBCFBDF0BDC0E6FF12D9370EE66EB4
:104FB000550EE66E3E0EE66E550E3DD9A3EC04F09E
:104FC0005FEC0EF0E66A3CEC04F0E5520001C76FBE
:104FD000020EE66E3CEC04F0E5520001C86F9DEC59
:104FE0000CF046EC20F0F28E040EE15C02E2E16A85
:104FF000E552E3D081A80CD081B6FCD7E66A220E38
:10500000E66E550EE66E300EE66E550E14D9F2D7EA
:1050100081A8FED712000001CF5103E00001C85162
:1050200001E0030CEAEC21F0140EE66E8FEC26F0A2
:10503000E552FBEF21F0BCD80001B12B000EB223EA
:10504000B323B423FE0EDB5007E1B52B000EB623CD
:10505000B723B8233ED806D0B92B000EBA23BB2302
:10506000BC231BD8D8EC04F0DFD0A2D8030EE12675
:10507000DE6ADD6A050EB4D88D80B7D8030EE15C18
:1050800002E2E16AE55299D0D3D88D90AED8020EF3
:10509000E15C02E2E16AE55290D0CAD8898884A432
:1050A00012D0DF2A010E01E3DB2A89D8F8E1170EBE
:1050B000ED18F5E1F092F088020EE66E170EE66E3E
:1050C000550EABD8ECD7020EE15C02E2E16AE55284
:1050D00074D0AED8899884B412D0DF2A010E01E3CF
:1050E000DB2A6DD8F8E1170EED18F5E1F092F088A3
:1050F000020EE66E0E0EE66E550E8FD8ECD7020E3F
:10510000E15C02E2E16AE55258D08D908998899677
:105110008C9AF9EF28F04CD8E652EAEC21F0815055
:10512000100B06E18150080B03E159EC18F06BD825
:105130009EAA0FD0AE50DF6E470EDF5C0DE0670E0B
:10514000DF5C0AE0480EDF5C03E0680EDF5C01E133
:105150005AD877EC05F0E3D7E55266D080B41BD07F
:105160000001C15116E1F092F088CFDF080EE66E23
:1051700025EC04F0E552DAEC1DF08C9A3AD881A4C3
:10518000FED70001C16BBDC0E6FF00EC20F0E55288
:105190001200C10712008C9A0001C16B1200010EAF
:1051A000E66EBFEC18F0146E060EE15E14501200AD
:1051B000D9CFE6FFE1CFD9FF1200E16E35D0ABECDD
:1051C00005F0D9CFE9FFDACFEAFF700EEE18120032
:1051D00000EC20F0E5520DEC05F0010EE66E120039
:1051E000F36E020EF3CFDBFF1200A3EC04F0A3EF8B
:1051F00004F0E66A25EC04F0E5521200020EE12606
:10520000DE6ADD6A1200E66A6E0EE66E550EE66E26
:10521000770EE66E550E1BEF29F0E66E000EE66E79
:10522000E66ABDDFAFEF17F0E552E7CFD9FF120016
:0C523000BFDFFEEF28F0E66ECFEF28F0A5
:04523C00019E08D0F7
:10524000019E09AE05D0086C091EE86A0922018E8C
:1052500009C003F008C002F0136A126A8E0E046ED1
:10526000056A1DEF2AF0016A59EC2AF071EC2AF068
:1052700001B601EF2AF001A205D001BA01EF2AF030
:1052800008EF2AF001BA14EF2AF001A005D001B806
:1052900001EF2AF014EF2AF001B808EF2AF0056AAE
:1052A0007F0E0A24046EE86A05220F50045EE86A45
:1052B000055A1A0E106E0A6A126A136A026A036AA3
:1052C0000C50075E0D50085A0E50095A000E0A5A2B
:1052D00009E70C5007260D5008220E500922000E37
:1052E0000A2201D0128AD8900736083609360A36C3
:1052F000D8901236133602360336102EE1D70950F5
:1053000008100710D8A4128A1DEF2AF0006A0EAE0A
:105310008FEF29F00D6C0E1EE86A0E22001E09AEFA
:1053200097EF29F0086C091EE86A0922001E06ECB6
:105330002CF009BEA7EF29F000AE000C086C091E86
:10534000E86A0922046C051EE86A0522000C00BE0A
:105350009EEF29F00188FF0C08C012F008500D02E2
:10536000F4CF07F0F3CF06F009500E02F4CF09F0A6
:10537000F3CF08F00D02F3500726F4500822E86A34
:10538000092212500E02F3500726F4500822E86A50
:105390000922000C016A59EC2AF001B6D4EF29F079
:1053A00001A20FD001B407D07F0E096EFF0E086E68
:1053B000076E066E25D0800E096E01D0096A000EB8
:1053C000F6D701B0FBD7066A9F0E0A60EBD77E0EB8
:1053D0000A64F4D79E0E0A5C07E0D89009320832BE
:1053E000073206320A2AF6D701A40AD0066C071E35
:1053F000081E091EE86A07220822092209AEDED724
:1054000012007F0E0A6EFF0E096E086E076E120004
:105410007F0E01BEFF0E0A6E02D07F0E0A6E800E56
:10542000096E086A076AF3D701AE04D0800E0A6ECF
:10543000096AF7D70A6A096AF4D7035002101310F1
:105440001210F8E005BEF0D703BE0CD004500510D2
:10545000EBE0D89012361336023603360406D8A095
:105460000506F2D70550D4E10428D2E012AE11D0DF
:105470007F0E121402E113A00CD0132AE86A022254
:10548000032207E3D880033202321332042A0428AD
:10549000BFE00450C9E013C007F002C008F00334B5
:1054A000096E04300A6E09320A9E01BE0A8E07EFA9
:1054B0002AF009360A3602E30184017E06E1018002
:1054C0000A6A096A086A076A12000A2803E0D88093
:1054D00009321200D890093202E1018212000186DD
:1054E00012000E360F3602E3018C017E06E10188C0
:1054F0000F6A0E6A0D6A0C6A12000F2803E0D8804A
:0E5500000E321200D8900E32EAE1018A12003B
:02550E0050410A
:105510005353204A414D0052454A454354204A4185
:105520004D0052454C45415345205354415254007F
:10553000504155534544004D4F4C42494F0057454B
:105540004C434F4D4520544F004144445245535322
:1055500020307832370054455354494E47204C434D
:105560004400505245535320535441525400544F19
:1055700020535441525400534554555020424154F5
:10558000434800514120534954452D49494900445D
:105590004556454C4F504544204259000A452E5629
:1055A0004D2046542043570A000A532E564D20469C
:1055B00054204143570A000A452E564D2043570AAE
:1055C000000A452E564D204143570A000A532E56D5
:1055D0004D2043570A000A532E564D204143570A87
:1055E0000046494C4C20535441434B202600535411
:1055F00041434B20454D505459002000204E4F2030
:105600004341525452494447450050524553532058
:105610005354415254002D2C2D0A004C4F474749FA
:105620004E47204552524F522E004455504C49434C
:105630004154452051522E00524550454154454455
:105640002054455354494E472E004C454E4754482C
:10565000204552524F522E005343414E4E45522048
:105660004857204552524F52005343414E4E4552E7
:10567000204552524F520052454A4543544544003A
:1056800052454144494E4720515200534243204520
:10569000722D3100504C454153452057414954002B
:1056A0004C4F4144494E47004F4E2051523F004F0E
:1056B00046462051523F004F4E004F4E2044415429
:1056C000413F004F4646004F464620444154413F2B
:1056D000004D454E55004558495400425420504114
:1056E0004952004D454348205453540045520054FC
:1056F0002D4F5554004F4B0050414952004E4F54CE
:10570000205245515549524544004D454348205487
:0E571000455354004641494C0050494E3F005D
:02571E00065033
:105720000B02F3CF02F0F4CF03F00C02F350032688
:10573000000EF420046E06500D02F3500426000EF5
:10574000F420056E06500E02F350052607500B029A
:10575000F3500326F4500422000E052207500C02D9
:10576000F3500426F450052207500D02F35005268D
:1057700008500B02F3500426F450052208500C0286
:0E578000F350052609500B02F35005261200C7
:02578E00056AAA
:10579000046A036A026A200EE76ED890063607365E
:1057A0000836093602360336043605360B50025CDD
:1057B0000C5003580D5004580E50055809E30B5077
:1057C000025E0C50035A0D50045A0E50055A062A18
:0657D000E72EE4D71200F1
:0A57D600532E564D20435720464144
:1057E000494C00532E564D20414357204641494CC9
:1057F00000452E564D204357204641494C00452E2A
:0C580000564D20414357204641494C00C2
:04580C00056A046ABB
:10581000100EE76ED89008360936043605360D505E
:10582000045C0E50055805E30D50045E0E50055AF9
:08583000082AE72EF0D7120050
:08583800524541444552204550
:1058400052524F52004E4F20515200515220464268
:10585000204552524F5200515220542E4F55540061
:10586000FF0EE350206E480E01D04C0EE76EE72E7F
:10587000FED7E76AE72EFED7202EF7D700001200EA
:10588000000EF36E00EE00F0080E01D81200EA6080
:1058900002D0EE6AFCD7F350E9601200EE6AFCD742
:1058A000FF0EE350E84E1200000000D000D000D000
:0658B000E82EFAD71200F9
:0A58B6004F4B2020202020203E2030
:0758C00020202020203C0005
:0958C70050524553532053544143
:0358D0005254002F
:0258D3000000D3
:0158D50008CA
:0158D60000D1
:0958D700000000000000000000C8
:0858E0000000004E273F2000EC
:0858E800000000000000532E37
:1058F000564D20465420414357204641494C0053C1
:105900002E564D204654204357204641494C0045D1
:105910002E564D20465420414357204641494C00C5
:10592000452E564D204654204357204641494C00B1
:0959300020212223242526273F13
:020000040030CA
:0100000024DB
:010001000EF0
:010002003FBE
:010003001EDE
:010005008179
:010006008178
:0100080000F7
:01000900C036
:01000A000FE6
:01000B00E014
:01000C000FE4
:01000D0040B2
:0200000400F00A
:03000000001400E9
:00000001FF
